:100000000C94D9110C940A120C940A120C940A1232
:100010000C940A120C940A120C940A120C940A12F0
:100020000C940A120C940A120C940A120C940A12E0
:100030000C940A120C94E2B30C940A120C940A1257
:100040000C940A120C94B5460C940A120C940A12E1
:100050000C940A120C944F480C9452470C9494AE92
:100060000C940A120C94AC480C94D6480C940A12C6
:100070000C940A120C940A120C940A120C940A1290
:100080000C940A120C940A120C940A120C940A1280
:100090000C940A120C940A120C940A120C940A1270
:1000A0000C940A120C940A120C940A120C940A1260
:1000B0000C940A120C940A120C940A120C940A1250
:1000C0000C940A120C940A120C940A120C940A1240
:1000D0000C940A120C940A120C940A120C940A1230
:1000E0000C940A12329C399C639CEC9C32A632A67A
:1000F00032A632A632A632A632A632A632A67C9C00
:10010000A99CC09C32A632A632A632A632A632A63E
:1001100032A632A632A632A632A6099E459E7E9E01
:10012000B89EF29E2C9F669F32A693A2BA9F08A00B
:1001300056A0A4A0F2A040A18EA1E5A13CA232A6A7
:1001400032A632A632A632A66C9DA79DD89DE2A209
:100150002BA375A3C3A3CAA3DDA30DA43EA47FA4B0
:10016000C0A4FFA442A555A5D1A3A4A532A632A63A
:1001700032A632A632A632A632A632A632A632A6BF
:1001800032A60E9D3C9D32A632A632A632A632A6DB
:1001900032A632A632A6ECA532A6849D32A632A69D
:1001A00032A66FA58AA5084AD73B3BCE016E84BC18
:1001B000BFFDC12F3D6C74319ABD56833DDA3D00C1
:1001C000C77F11BED9E4BB4C3E916BAAAABE00000A
:1001D00000803F05A84CCDB2D44EB93836A9020CE8
:1001E00050B9918688083CA6AAAA2ABE00000080C1
:1001F0003F00000100250030001D000C0018002405
:100200000031001C000B00170023002F001B000A08
:10021000001E000D0004000900FFFF080022002B53
:10022000001A0041004200000001003500486561ED
:1002300074696E67204578747275646572004865EC
:100240006174696E672042656400536574204D696E
:1002500063726F7374657070696E67004372656175
:1002600074696F6E206661696C65640044697265CB
:1002700063746F72792063726561746564004465AC
:100280006C6574696F6E206661696C6564004669AF
:100290006C652064656C6574656400446F6E6520F0
:1002A000736176696E672066696C652E00577269A6
:1002B00074696E6720746F2066696C653A20006F00
:1002C00070656E206661696C65642C2046696C659A
:1002D0003A20004E6F74205344207072696E746926
:1002E0006E67005344207072696E74696E67206295
:1002F000797465200066696C652E6F70656E206686
:1003000061696C65640046696C652073656C656342
:10031000746564002053697A653A0046696C65200B
:100320006F70656E65643A00456E642066696C6541
:10033000206C69737400426567696E2066696C653C
:10034000206C697374006572726F722077726974C1
:10035000696E6720746F2066696C6500534420697C
:100360006E6974206661696C005344204361726455
:1003700020696E7365727465640053442043617232
:10038000642072656D6F76656400616476616E638A
:1003900065204C205B303D6F66665D006164766170
:1003A0006E6365204B205B303D6F66665D0065784F
:1003B00074727564657220636F6F6C657220737000
:1003C000656564205B302D3235355D00646973747A
:1003D000616E636520746F2072657472616374204E
:1003E0007768656E2068656174696E67205B6D6D06
:1003F0005D0074656D702E20666F72207265747278
:10040000616374696F6E207768656E2068656174DA
:10041000696E67205B435D0074656D702E20737498
:100420006162696C697A652074696D65205B735DD2
:1004300000592D6F6666736574205B737465707305
:100440005D00582D6F6666736574205B737465700C
:10045000735D00504944206D61782076616C75654C
:10046000205B302D3235355D0050494420442D67E6
:1004700061696E0050494420492D6761696E0050E2
:10048000494420502D6761696E2F646561642D7445
:10049000696D6500504944206472697665206D6914
:1004A0006E00504944206472697665206D61780061
:1004B00068656174206D616E61676572205B302DC7
:1004C000335D00616363656C65726174696F6E2092
:1004D0005B6D6D2F735E325D0073746172742066A4
:1004E00065656472617465205B6D6D2F735D006D71
:1004F00061782E206665656472617465205B6D6D40
:100500002F735D00737465707320706572206D6D5C
:100510000042656420504944206D61782076616C0A
:100520007565205B302D3235355D004265642050A5
:10053000494420442D6761696E004265642050493A
:100540004420492D6761696E00426564205049442A
:1005500020502D6761696E00426564205049442037
:100560006472697665206D696E0042656420504949
:1005700044206472697665206D617800426564206C
:1005800048656174204D616E61676572205B302D36
:10059000335D00546F776572205A20656E64737402
:1005A0006F70206F6666736574205B73746570731B
:1005B0005D00546F776572205920656E6473746FA7
:1005C00070206F6666736574205B73746570735D0D
:1005D00000546F776572205820656E6473746F7075
:1005E000206F6666736574205B73746570735D005D
:1005F0005365676D656E74732F7320666F72207418
:10060000726176656C005365676D656E74732F73E8
:1006100020666F72207072696E74696E6700486F31
:1006200072697A6F6E74616C20726164697573208F
:100630005B6D6D5D00446961676F6E616C20726F08
:1006400064206C656E677468205B6D6D5D00486F3B
:100650006D696E67206665656472617465205B6DA7
:100660006D2F735D004D61782E2066656564726143
:100670007465205B6D6D2F735D005374657073201E
:10068000706572206D6D0054726176656C206163D7
:1006900063656C65726174696F6E205B6D6D2F733D
:1006A0005E325D00416363656C65726174696F6E93
:1006B000205B6D6D2F735E325D004D61782E206A78
:1006C00065726B205B6D6D2F735D005A206D6178D4
:1006D000206C656E677468205B6D6D5D0059206DE0
:1006E0006178206C656E677468205B6D6D5D005885
:1006F000206D6178206C656E677468205B6D6D5D40
:10070000005A20686F6D6520706F73205B6D6D5DA2
:10071000005920686F6D6520706F73205B6D6D5D93
:10072000005820686F6D6520706F73205B6D6D5D84
:100730000053746F70207374657070657220616609
:1007400074657220696E6163746976697479205B7F
:100750006D732C303D6F66665D004D61782E2069AB
:100760006E6163746976652074696D65205B6D7375
:100770002C303D6F66665D005072696E7465722044
:10078000616374697665205B735D0046696C616DB9
:10079000656E74207072696E746564205B6D5D00B7
:1007A0004261756472617465004550523A332000AD
:1007B0004550523A3220004550523A3120004550BF
:1007C000523A302000457874722E0050726F746F68
:1007D000636F6C2076657273696F6E206368616EFB
:1007E0006765642C20757067726164696E67004389
:1007F0006F6E66696775726174696F6E207265737A
:10080000657420746F2064656661756C74732E0066
:10081000436F6E66696775726174696F6E206C6F85
:10082000616465642066726F6D20454550524F4D7E
:100830002E00436F6E66696775726174696F6E2012
:1008400073746F72656420746F20454550524F4D2C
:100850002E004D65617375726564206F72696769FA
:100860006E207365742E204D6561737572656D65BC
:100870006E742072657365742E004D6561737572B8
:10088000656D656E742072657365742E004D6561CB
:10089000737572652F64656C7461203D00436F6EE3
:1008A0007374616E742066756C6C2073706565641A
:1008B000206D6F76652074696D653A00436F6D6DCC
:1008C000616E6465642066656564726174653A0092
:1008D0004D6F76652064697374616E6365206F6E19
:1008E000207468652058595A2073706163653A0016
:1008F0004C696D6974496E74657276616C3A006119
:100900006476616E6365526174653A006164766114
:100910006E636546756C6C3A0052656D61696E690F
:100920006E672073746570733A00416363656C652C
:10093000726174696F6E205072696D3A0041636331
:10094000656C65726174696F6E3A00764D61783AD4
:100950000066756C6C53706565643A004469723A60
:100960000044656C7461006A6F696E466C61677300
:100970003A00466C6167733A0073742E2F656E649B
:100980002073706565643A00616363656C2F64650C
:1009900063656C2073746570733A0076537461728A
:1009A000742F456E643A0049443A005072696E747F
:1009B00065722073657420696E746F20647279208B
:1009C00072756E206D6F646520756E74696C20722F
:1009D00065737461727421003A20776F726B696E6F
:1009E00067003A2074656D702073656E736F7220B6
:1009F00064656665637400657874727564657220F9
:100A00000068656174656420626564004D54454DFD
:100A1000503A00504944204175746F74756E6520DA
:100A200066696E6973686564202120506C61636536
:100A300020746865204B702C204B6920616E642007
:100A40004B6420636F6E7374616E747320696E20E3
:100A500074686520436F6E66696775726174696F4B
:100A60006E2E68206F7220454550524F4D00504900
:100A700044204175746F74756E65206661696C659C
:100A800064212074696D656F75740050494420417C
:100A900075746F74756E65206661696C656421207C
:100AA00054656D706572617475726520746F20682D
:100AB00069676800204B643A2000204B693A2000A7
:100AC000204B703A200020436C617373696320509F
:100AD0004944002054753A2000204B753A200020EC
:100AE0006D61783A2000206D696E3A200020643AEA
:100AF000200020626961733A20005049442041750A
:100B0000746F74756E6520737461727400546172D1
:100B10006765744265643A0054617267657445782C
:100B20007472004E6F206D6F766520696E2064656B
:100B30006C7461207365676D656E74207769746885
:100B4000203E2031207365676D656E742E205468D9
:100B500069732073686F756C64206E6576657220AA
:100B600068617070656E20616E64206D61792063CC
:100B70006175736520612070726F626C656D210014
:100B8000496E76616C69642064656C746120636F82
:100B90006F7264696E617465202D206D6F766520BB
:100BA00069676E6F72656400454550524F4D207500
:100BB000706461746564004D65617375726564206D
:100BC0006F726967696E207365742E204D6561735D
:100BD0007572656D656E742072657365742E004D57
:100BE0006561737572652F64656C7461203D004D9D
:100BF0006561737572652F64656C74612028537428
:100C000065707329203D004D6561737572656D6572
:100C10006E742072657365742E0020717561647244
:100C200061746963204B3A006C696E656172204C97
:100C30003A002C2073706565643D00207175616415
:100C400072617469632073746570733A00206C6913
:100C50006E6561722073746570733A004A65726BD9
:100C60003A007A5F6D61783A00795F6D61783A0099
:100C7000785F6D61783A004C200048200020746F46
:100C80002000536574206F757470757420004D5387
:100C9000312C4D53322050696E730045313A004576
:100CA000303A005A3A00593A0020002C00496E763A
:100CB000616C69642061726300206D696E00206858
:100CC0006F7572732000206461797320006D2000BD
:100CD0005072696E74696E672074696D653A005070
:100CE00072696E7465642066696C616D656E743AD4
:100CF0000046616E73706565643A00466C6F774DAF
:100D0000756C7469706C793A0053706565644D75E3
:100D10006C7469706C793A002F003A0020403A00F8
:100D200020423A00543A0020453A00205A3A002026
:100D3000593A00583A00467265652052414D3A00D2
:100D4000556E6B6E6F776E20636F6D6D616E643A7A
:100D500000536F6674776172652052657365740025
:100D60005761746368646F672052657365740042ED
:100D7000726F776E206F75742052657365740045CD
:100D8000787465726E616C20526573657400506F83
:100D9000776572557000737461727400424C4B2019
:100DA00000736B6970200020676F742000457272B9
:100DB0006F723A6578706563746564206C696E65FE
:100DC000200053442072656164206572726F720066
:100DD000205200204A0020490020500020530020CB
:100DE0004600204500205A00205900205800446F3A
:100DF0006E65207072696E74696E672066696C65D5
:100E00000057726F6E6720636865636B73756D0062
:100E10006F6B20004563686F3A00526573656E64BE
:100E20003A005761726E696E673A00496E666F3AB2
:100E3000004572726F723A00494E46004E414E00B4
:100E40006F6B0044656275673A004649524D5741E1
:100E500052455F4E414D453A526570657469657201
:100E60005F302E3930616C706861204649524D57B1
:100E70004152455F55524C3A68747470733A2F2F43
:100E80006769746875622E636F6D2F726570657423
:100E90006965722F52657065746965722D46697255
:100EA0006D776172652F2050524F544F434F4C5F06
:100EB00056455253494F4E3A312E30204D4143480A
:100EC000494E455F545950453A44656C746120451C
:100ED000585452554445525F434F554E543A312071
:100EE00052455045544945525F50524F544F434F1D
:100EF0004C3A320000021C151C141C000022431442
:100F00001F1F2B0F9B0FEF0F5F10AF100000000093
:100F10001F11A711B31203137F134D313137204531
:100F200078747275646572203100000000A00F5C57
:100F3000006009690010097900C0088C007008A2DF
:100F4000002008BD00D007DE00800705013007340F
:100F500001E0066D019006B20140060702F0056D42
:100F600002A005E80250057B0300052B04B004F83D
:100F7000046004EB06C003350920037F0B80026583
:100F80000DE001B00E40011D0FF000480FC8006CCD
:100F90000FA000ED0F60FFFE0F48FE0400801AD87E
:100FA000009808AC012007800250065403C80528A9
:100FB000045805FC040005D005B004A406680478B4
:100FC0000728044C08E8032009B003F4097003C89B
:100FD0000A38039C0BF802700CB002440D6802182A
:100FE0000E0802EC0E8801C00F8800F00F0000040C
:100FF00000001B54006009640010097400C00884DC
:101000000070089C002008B800D007D800800700B6
:101010000130072C01E00668019006AC0140060093
:1010200002F0056802A005E00250057403000524E3
:1010300004B004F0046004DC051004E406C00304FA
:1010400008700330092003780B8002600DE001A8CE
:101050000E4001680FA000C00F0000E80F60FF0401
:1010600000700DD8004804AC0158038002D8025427
:1010700003800228043802FC040002D005C801A441
:10108000069801780770014C08480120091801F4FE
:1010900009F000C80AC8009C0BA000700C70004446
:1010A0000D3800180E0000EC0EA8FFC00FE8FE047B
:1010B00000001B54006009640010097400C008841B
:1010C0000070089C002008B800D007D800800700F6
:1010D0000130072C01E00668019006AC01400600D3
:1010E00002F0056802A005E0025005740300052423
:1010F00004B004F0046004DC051004E406C003043A
:1011000008700330092003780B8002600DE001A80D
:101110000E4001680FA000C00F0000E80F60FF0044
:1011200000401F450060094F0010095C00C0086BBB
:101130000070087D0020089200D007AC008007CC2A
:10114000003007DE00E006230190065E014006A69F
:1011500001F005FF01A0056D025005F302000596A0
:1011600003B0045A046004400510044806C0036E2E
:10117000077003A8082003EB09D002230B8002416B
:101180000C3002390DE001040E9001A20E4001174F
:101190000FF000690FA000A20F5000C60F0000DD85
:1011A0000FB0FFEB0F60FF0400681D4C00500B9464
:1011B000005809DC0050082401A8076C012807B476
:1011C00001C006FC017006440228068C02F005D41A
:1011D00002B8051C03880564035805AC033005F408
:1011E0000310053C04E8048404C804CC04A80414D7
:1011F0000590045C057004A4055804EC053804341B
:101200000620047C060804C406F0030C07D8035427
:1012100007C8039C07B003E40798032C08800374F5
:10122000087003BC085803040948034C09300394B0
:10123000091803DC090803240AF0026C0AE002B46E
:101240000AC802FC0AB002440BA0028C0B8802D42C
:101250000B70021C0C5802640C4002AC0C2802F407
:101260000C10023C0DF001840DD801CC0DB8011416
:101270000E98015C0E7001A40E4801EC0E180134AA
:101280000FD8007C0F8800C40F0800FC0F0000007E
:10129000000000000000000000000000000000004E
:1012A000000000000000000000000000000000003E
:1012B00000000004000016D800C006AC01780580CC
:1012C00002C004540348042804E803FC049803D033
:1012D000055003A40618037807D8024C08A802207A
:1012E000097002F4093802C80A08029C0BD0017088
:1012F0000C9001440D5001180EF800EC0E8800C04F
:101300000F00000400401D900060091C01B007A8F8
:1013100001D00634023806C002C8054C036805D85F
:101320000318056404D804F00498047C05600408DC
:10133000063004940600042007D003AC07A8033845
:10134000088003C408580350093003DC0908036807
:101350000AE002F40AB802800B88020C0C600298C2
:101360000C3002240DF801B00DC0013C0E8001C804
:101370000E3001540FB800B40F2800E00F00000435
:1013800000081D900058091C01B007A801C80634C8
:10139000023006C002C0054C036805D80318056476
:1013A00004D004F00498047C05600408063004941A
:1013B0000600042007D003AC07A80338088003C444
:1013C00008580350093003DC090803680AD802F4FE
:1013D0000AB002800B88020C0C6002980C300224C8
:1013E0000DF801B00DC0013C0E8001C80E30015453
:1013F0000FB800B40F2800E00F00004572726F7242
:101400003A42696E61727920636D642077726F6E03
:101410006720636865636B73756D2E00000020A103
:1014200090D00A8B48E8A0868545041724F403D998
:1014300050C38EB1C2A23D96828B3582127AE3727E
:10144000816CCB66A861015DC758EB546151204E99
:101450001E4B5648C14559431A41013F093D2F3B98
:101460007139CD374036C93465331432D430A32FA7
:10147000802E6B2D632C672B752A8E29B028DC27D4
:1014800010274B268F25D9242B248223E0224322A8
:10149000AC211A218D200420801F001F841E0C1EE9
:1014A000971D261DB81C4E1CE61B821B201BC11A53
:1014B000641A0A1AB2195D190A19B9186A181C189F
:1014C000D11788174017FA16B51673163116F1158D
:1014D000B31576153A150015C7148F145814221435
:1014E000EE13BA13881356132513F612C712991266
:1014F0006C1240121512EB11C111981170114811A4
:101500002111FB10D610B1108D1069104610241057
:101510000210E10FC00FA00F800F610F420F230FC9
:10152000060FE80ECB0EAF0E930E770E5C0E410E3B
:10153000270E0D0EF30DDA0DC10DA80D900D780DCF
:10154000600D490D320D1B0D050DEF0CD90CC30CB0
:10155000AE0C990C850C700C5C0C480C350C210CF5
:101560000E0CFB0BE80BD60BC40BB20BA00B8E0BB7
:101570007D0B6B0B5A0B4A0B390B290B180B080B05
:10158000F80AE90AD90ACA0ABB0AAC0A9D0A8E0AF5
:10159000800A710A630A550A470A390A2C0A1E0A88
:1015A000110A040AF709EA09DD09D009C409B709D3
:1015B000AB099F09920987097B096F0963095809DB
:1015C0004C09410936092B09200915090A090009A6
:1015D000F508EB08E008D608CC08C208B808AE0841
:1015E000A4089A08900887087D0874086B086108A9
:1015F00058084F0846083D0834082C0823081A08E4
:10160000120809080108F807F007E807E007D807FB
:10161000D007C807C007B807B007A807A107000090
:10162000420FA1071605D0030D038B022E02E8011D
:10163000B2018601630145012C0117010401F40088
:1016400049646C65004B696C6C656400537465702B
:101650007065722044697361626C656400507269E0
:101660006E74696E6700486F6D652044656C7461C7
:1016700000534420436172642072656D6F76656427
:10168000005344204361726420696E73657274650F
:10169000640055706C6F6164696E672E2E2E007C3D
:1016A0003C3E5E2B3D3F2F5B5D3B2C2A225C0000C5
:1016B00000FF00000000010100000000FF00000426
:1016C0000E15041C000000040A04000000000000C5
:1016D0001F1F1F1F1F0000001F1111111F000004FA
:1016E0000A0A0A0E1F1F0E001C1F11111F000050B6
:1016F00072696E7465722072656164792E0052653C
:1017000070657469657220302E3930616C70686163
:101710000044656C746120546F776572000040145A
:10172000540000003FCDCC4C3D0AD7A33B6F1203C1
:101730003A4F6E004F666600596573004E6F006445
:101740006566005072696E74696E672E2E2E0003F6
:1017500000040042616E6742616E670050494400B8
:101760004E2F4100206461797320003A0000601818
:1017700067186E18751802000008007C1880250094
:101780000040380000004B00008070000000960010
:1017900000C0DA000000E10000002C010008B201E6
:1017A0000000C2010000F401000084030090D00397
:1017B0000000E803000000000003FC0304008C1894
:1017C000416374696F6E3A256C610050726568659B
:1017D000617420504C41005072656865617420410D
:1017E000425300436F6F6C646F776E0003102702E3
:1017F0000094180310270200981801000001009CB3
:10180000184E6F2053442043617264000310270276
:10181000009E180200000700A21803ED030400B0A8
:101820001803EE030400B81803EF030400C0180304
:10183000FA030400C81803FB030400D018020000D8
:101840000A00D8180200000600EC18020000090087
:10185000F8185265717565737450617573653A0057
:1018600000000004000A1900000004001219000022
:101870000004001A19000000040022192A192F1967
:10188000341939193E19431948194D195219571964
:101890005C19611966196B19701975192A197A1969
:1018A0007F192A19841989198E19931998199D1964
:1018B000A219A719AC19B119B619BB19C019C519C4
:1018C000CA19CF19D419D919DE19E319E819ED1974
:1018D000F219F719FC19011A2A19061A0B1A101A0B
:1018E000151A1A1A1F1A241A291A2E1A2A19331A03
:1018F000381A3D1A421A471A2A19061A4C1A511A4E
:10190000561A5B1A601A651A421A6A1A6F1A741A02
:10191000791A7E1A831A881A8D1A921A971A9C1AA3
:10192000A11AA61AAB1AB01AB51ABA1A03E803C15B
:101930001A023D18D01A024B18D91A024418E21A9A
:1019400002EC1AF31A021318FB1A02051B0C1B02F5
:101950001A1B211B0000002A1B0000003A1B00007C
:10196000004A1B0000004B1B000000591B00000038
:101970006A1B000000781B000000891B0000009912
:101980001B0000009D1B03F503A81B03F603B41BFB
:1019900003F703C31B03F803D01B03F903DB1B038B
:1019A000F403E71B000000F01B000000001C000017
:1019B00000101C000000111C0000001A1C00000098
:1019C0002A1C0000003A1C0000003B1C00000044E0
:1019D0001C000000541C000000641C000000651C7A
:1019E0000000006E1C0000007E1C0000008E1C0029
:1019F00000008F1C000000981C000000A81C0000C4
:101A000000B81C000000B91C03FD03C21C0337040E
:101A1000CE1C034704DA1C041F04EC1C044804FE1B
:101A20001C033804071D033104151D034204251D42
:101A3000035104311D043C04411D043D04511D03A8
:101A40003A04601D026F1D761D034304811D022FA1
:101A5000188D1D021A18981D023618A41D0221188F
:101A6000AF1D02B917BB1D022818C61D000000D902
:101A70001D000000DF1D000000EF1D000000F31D31
:101A8000000000FC1D000000051E0000000E1E00EE
:101A90000000121E000000231E000000241E000093
:101AA00000341E000000381E000000461E0000002A
:101AB0004A1E0000005B1E0000004261636B2001B3
:101AC00000517569636B2053657474696E677300A8
:101AD000506F736974696F6E0045787472756465D0
:101AE000720046616E207370656564000200000636
:101AF00000611E534420436172640044656275674F
:101B000067696E670002000005006D1E436F6E6618
:101B1000696775726174696F6E0002000008007772
:101B20001E5A3A257832206D6D004D696E20656E23
:101B30006473746F703A25737A004D617820656E16
:101B40006473746F703A25735A0000436F6E666950
:101B50006775726174696F6E0073746F726564206B
:101B6000696E20454550524F4D00436F6E66696760
:101B700075726174696F6E006C6F61646564206674
:101B80002E20454550524F4D002A2A2A2A204552E0
:101B9000524F52202A2A2A2A00256F650050726966
:101BA0006E742066696C65005061757365205072B3
:101BB000696E7400436F6E74696E7565205072694A
:101BC0006E7400556E6D6F756E74204361726400A3
:101BD0004D6F756E7420436172640044656C65746A
:101BE000652066696C6500583A257830206D6D0077
:101BF0004D696E20656E6473746F703A257378005A
:101C00004D617820656E6473746F703A2573580067
:101C100000593A257831206D6D004D696E20656E52
:101C20006473746F703A257379004D617820656E26
:101C30006473746F703A25735900005A3A257832EC
:101C4000206D6D004D696E20656E6473746F703A1F
:101C500025737A004D617820656E6473746F703AF5
:101C600025735A0000583A257830206D6D004D6973
:101C70006E20656E6473746F703A257378004D61E1
:101C80007820656E6473746F703A2573580000593C
:101C90003A257831206D6D004D696E20656E647354
:101CA000746F703A257379004D617820656E6473A6
:101CB000746F703A2573590000486F6D6520416C50
:101CC0006C005072656865617420504C4100507220
:101CD00065686561742041425300537065656420F6
:101CE0004D756C2E3A256F6D25252500466C6F7756
:101CF000204D756C2E203A256F6625252500436FF3
:101D00006F6C646F776E0053657420746F204F7230
:101D10006967696E0044697361626C6520737465FC
:101D200070706572005772697465204465627567EA
:101D3000004265642054656D702E3A254562024369
:101D40000054656D702E203020203A254530024326
:101D50000045787472756465722030204F666600A5
:101D6000457874722E20706F736974696F6E00030A
:101D7000F0030200871E536574204F726967696E15
:101D8000005820506F732E20466173740058205005
:101D90006F736974696F6E005920506F732E2046FF
:101DA000617374005920506F736974696F6E005AC3
:101DB00020506F732E2046617374005A20506F7349
:101DC0006974696F6E00052565632F2545630242BE
:101DD0002565422F25456202005A3A257832004D8A
:101DE000756C3A256F6D204275663A256F42002565
:101DF0006F7300583A257830206D6D00593A257878
:101E000031206D6D005A3A257832206D6D00256FB6
:101E1000730045313A2565302F25453002437E2534
:101E20006F300000423A2565622F25456202437EED
:101E3000256F6200256F73005072696E74696E675A
:101E40002074696D65002555740046696C616D6587
:101E50006E74207072696E74656400255566206D1D
:101E6000002A198B1E901E951E9A1E9F1E2A19A4C9
:101E70001EA91EAE1EB31E2A19B81EBD1EC21EC745
:101E80001ECC1ED11ED61EDB1EE01EE51E031A044C
:101E9000F21E031B04001F031C040E1F031D041C61
:101EA0001F031E04291F033204351F033304411F7F
:101EB0000334044D1F033504591F02611F681F02BC
:101EC000751F7C1F02851F8C1F02951F9C1F030618
:101ED00004AC1F030704BB1F02C81FCF1F00000074
:101EE000D81F0000005475726E2046616E204F6648
:101EF00066005365742046616E2032352525250025
:101F00005365742046616E203530252525005365C4
:101F1000742046616E2037352525250053657420D1
:101F200046616E2046756C6C004563686F2020200A
:101F30003A25646F00496E666F2020203A25646957
:101F4000004572726F7273203A256465004472799D
:101F50002072756E3A2564640047656E6572616C27
:101F6000000200000400E71F416363656C65726155
:101F700074696F6E000200000400EF1F466565641F
:101F800072617465000200000300F71F45787472E7
:101F900075646572000200001100FD1F53746F72BA
:101FA0006520746F20454550524F4D004C6F616461
:101FB00020662E20454550524F4D0044656C74619B
:101FC0002043616C69622E0002000007001F20455B
:101FD0003A257833206D6D003120636C69636B2086
:101FE0003D2031206D6D002A192D20322037202A06
:101FF000193C20412046202A194B2050202A1955EF
:10200000205A205F20642069206E20732078207D74
:1020100020822087208C20912096209B20A0202A9F
:1020200019A520AA20AF20061A651A601AB4200448
:102030001004C12002D220D92002E720EE20040A99
:1020400004F820040D040121040E040D21041604DB
:1020500015210413041E210429042B21042C043807
:1020600021042B044321042A044D21042E045B2166
:10207000044D046E21044C047F210446048F210486
:102080003004A021042D04AC21042204B621042331
:1020900004C021042404CA21042504D821042604F0
:1020A000E621042F04F22103AA0FFD2103AB0F093F
:1020B0002203AC0F42617564726174653A256F63E7
:1020C000005374657070657220496E61637469763F
:1020D000650003200402001A224D61782E20496E0B
:1020E0006163746976650003210402001E22507248
:1020F000696E743A25617A004D6F76653A25615AAA
:10210000004A65726B2020203A25616A004D617893
:102110003A25667A00486F6D653A25665A00537411
:102120006570732F4D4D3A25536500537461727479
:102130002046523A255866004D61782046523A258D
:10214000584600416363656C3A25584100537461F9
:10215000622E54696D653A2558770057616974207D
:10216000556E6974733A20255855206D6D0057617E
:1021700069742054656D702E202558540243004127
:102180006476616E6365206C696E3A25586C004117
:102190006476616E636520717561643A25586100EB
:1021A000436F6E74726F6C3A255868005049442032
:1021B000503A2558700050494420493A2558690042
:1021C00050494420443A2558640044726976652099
:1021D0004D696E3A25586D004472697665204D61EF
:1021E000783A25584D00504944204D61783A255899
:1021F000440053686F77206D6561732E00526573DC
:102200006574206D6561732E00536574206D656182
:10221000732E206F726967696E00222227222C229A
:102220003122362200000045220000004F2200002B
:10223000005E220000004469732E204166746572BE
:102240003A256973005B735D20303D4F666600443C
:1022500069732E2041667465723A256970005B735C
:102260005D20303D4F6666000000090A02080B0C35
:102270000D0706030401000000000000000000003C
:10228000000000000000000000000000000000004E
:102290000000000011100F0000000000000000000E
:1022A000000000000000000000000000000001022B
:1022B0001020200808102040102040800201020158
:1022C0000804020101020408102040808040201010
:1022D0000804020180040201804020100804020169
:1022E00008040201010204081020408001020408D1
:1022F00010204080050505050705080808080202AA
:1023000002020A0A0808040404040101010101018F
:1023100001010303030303030303040707070C0C72
:102320000C0C0C0C0C0C0202020206060606060639
:1023300006060B0B0B0B0B0B0B0B000022002500F2
:1023400028002B002E00310034000201000005019E
:1023500008010B0100002100240027002A002D00A5
:102360003000330001010000040107010A010249A5
:102370004E46494E4954594E414E000020410000FE
:10238000C84200401C4620BCBE4CCA1B0E5AAEC5FB
:102390009D74CDCCCC3D0AD7233C17B7D13877CC30
:1023A0002B329595E6241FB14F0A8649617CB0AD6A
:1023B000657C11241FBECFEFD1E2DEBFCDBF00E0B0
:1023C0000CBF13E0A0E0B2E0E6E3FBE701E00BBFE7
:1023D00002C007900D92A034B107D9F71BE1A0E429
:1023E000B3E001C01D92A03EB107E1F713E2C0EBDC
:1023F000D3E200E006C022970109FE010BBF0E9454
:1024000085BDCA3AD10780E00807A9F70E9487B0C6
:102410000C940DB80C9400006DE080E394E00E94F1
:10242000C7446AE080E394E00C94C7442091831889
:10243000222331F023E333E34BEC51E40E94C5BB8C
:10244000089580914D038823C1F010924D030E949E
:10245000B33A8091C40281508093C402811109C0B3
:102460008091C502833010F40E943A3A85E080934F
:10247000C4028CE39BE10C9449AC089508C00E940F
:10248000BA410E9421128CE39BE10E9448AC8091EA
:1024900028058111F4CF08958F929F92AF92BF9239
:1024A000CF92DF92EF92FF926091820E7091830E35
:1024B0008091840E9091850E8090860E9090870E6C
:1024C000A090880EB090890EC0908A0ED0908B0E8E
:1024D000E0908C0EF0908D0E20918318222329F02D
:1024E00020E732E441E25DE304C020E030E040E870
:1024F0005FE30E94C5BBAB01BC0122E083E39DE02A
:102500000E94BA2580918318882329F020E732E4BD
:1025100041E25DE304C020E030E040E85FE3C50154
:10252000B4010E94C5BBAB01BC0122E08FE29DE07B
:102530000E94BA2580918318882329F020E732E48D
:1025400041E25DE304C020E030E040E85FE3C70122
:10255000B6010E94C5BBAB01BC0122E08BE29DE04D
:102560000E94BA2560919A0E70919B0E80919C0EEC
:1025700090919D0E0E94C2B920917F1830918018D1
:1025800040918118509182180E94C5BB20918318F8
:10259000222329F020E732E441E25DE304C020E099
:1025A00030E040E85FE30E94C5BBAB01BC0122E024
:1025B00087E29DE0FF90EF90DF90CF90BF90AF90CB
:1025C0009F908F900C94D525E0914003F0914103AA
:1025D00046A957A960AD71AD22E084E29DE00E945A
:1025E000BA250E943333AB01BC0122E080E29DE0BA
:1025F0000E94BA25E091C302EF3F29F4E091400325
:10260000F0914103E081F0E0E254F24F608170E02C
:102610008CE19DE00E945B240C940C12CF92DF921F
:10262000EF92FF92CF93DF93EC01893191052CF06B
:10263000C53F81E0D80724F405C0C9E1D0E002C05D
:10264000C4EFD1E0BE01882777FD8095982F0E94C6
:10265000C2B96B017C016091F90D7091FA0D882768
:1026600077FD8095982F0E94C2B99B01AC01C701EC
:10267000B6010E9427B99B01AC016091FB0D7091DE
:10268000FC0D8091FD0D9091FE0D0E94C5BB6093E5
:10269000FB0D7093FC0D8093FD0D9093FE0DD09378
:1026A000FA0DC093F90DBE0189E09DE0DF91CF9155
:1026B000FF90EF90DF90CF900C944B2489319105DF
:1026C00024F0893C910524F405C089E190E002C022
:1026D00088EC90E09093F80D8093F70DBC018BEFA0
:1026E0009CE00C944B24CF93DF93EC018F3F91053A
:1026F00019F014F0CFEFD0E0D7FF02C0C0E0D0E077
:1027000061110E943E128091C10D90E0C817D90757
:1027100029F0BE0181EF9CE00E944B24C093C10DC3
:10272000DF91CF9108954F925F926F927F928F9237
:102730009F92AF92BF92CF92DF92EF92FF92CF9390
:10274000DF93CDB7DEB728970FB6F894DEBF0FBE84
:10275000CDBF2FE632E143E85AE36091E10D70917D
:10276000E20D8091E30D9091E40D0E94C5BB6B01D9
:102770007C0144E050E061E870E0CE0101960E94E7
:1027800077BC29813A814B815C816C2D7D2D8E2D0A
:102790009F2D0E945AB8AB01BC0122E08FED9CE056
:1027A0000E94BA258DEC9CE00E948123E0910A02F0
:1027B000F0910B0220E030E040E751E4638574853E
:1027C000858596850E9423BB18160CF45AC020E01C
:1027D00030E0A9018DE790E02D833E834F83588739
:1027E0000E948FBC4B015C012D813E814F81588539
:1027F000820E931EA41EB51EC501B40120E831E56A
:1028000041E050E00E9463BD60E87EEA8EEF9FEFFA
:102810000E9409BD6B017C01C80CD91CEA1CFB1C81
:10282000BA01A90180ED9CE00E948524C701B60190
:1028300020E13EE040E050E00E9463BD49015A01C2
:10284000BA01A90186EC9CE00E948524A0EFB1EFBB
:10285000A50194010E9404BD6C0D7D1D8E1D9F1D60
:102860002CE330E040E050E00E9463BDBA01A901D2
:102870008EEB9CE00E94852489EB9CE00E948F23D4
:1028800015C00E94DEAEC090E50DD090E60DE09040
:10289000E70DF090E80D6C197D098E099F0928EE6F
:1028A00033E040E050E00E9441BD94CF28960FB63F
:1028B000F894DEBF0FBECDBFDF91CF91FF90EF90B8
:1028C000DF90CF90BF90AF909F908F907F906F9050
:1028D0005F904F9008955F988EBD0DB407FEFDCFB9
:1028E0006EBD0DB407FEFDCF5F9A0895CF93DF93C1
:1028F00000D01F921F92CDB7DEB795E0E0E2F3E083
:10290000DE01119601900D929A95E1F7E1E0F0E079
:10291000EC0FFD1FE80FF11D808190E00F900F90EC
:102920000F900F900F90DF91CF910C946B14FF924A
:102930000F931F93CF93DF9300D01F921F92CDB7B9
:10294000DEB785E0E5E2F3E0DE01119601900D923D
:102950008A95E1F7289A209A219A229A80E58CBDDF
:1029600081E08DBD579A8E010F5F1F4FF12CF8014A
:1029700061918F0170E08F2D0E947614F394F5E041
:10298000FF12F5CF0F900F900F900F900F90DF91E7
:10299000CF911F910F91FF90089567FD3BC082304A
:1029A000D9F028F4882341F08130A1F50BC08330A1
:1029B000E9F0843079F524C0662311F0A19A5FC054
:1029C000A1985DC080910801662311F0806801C064
:1029D0008F778093080159C080910801662311F018
:1029E000806401C08F7B8093080155C080910801ED
:1029F000662311F0886001C0877F8093080142C080
:102A000080910801662311F0826001C08D7F809360
:102A100008013EC047FD41C08230B9F028F4882348
:102A200041F08130D1F50BC08330C9F08430A9F575
:102A30001EC0442311F0A09A0895A098089544233D
:102A400011F0A29A0895A298089580910801442354
:102A500011F0806201C08F7D8093080108958091FC
:102A60000801442311F08061F7CF8F7EF5CF80916C
:102A70000801442311F08460EFCF8B7FEDCF47FF37
:102A8000D8CF089547FFEBCF089547FFD8CF0895DB
:102A900047FFEDCF089547FFD8CF0895643079F010
:102AA00028F4613041F0623089F407C0683051F099
:102AB000603161F407C040E003C040E004C041E081
:102AC00060E002C041E061E00C94CD140895CF9322
:102AD000DF938EE89CE00E948F2362B3669561705D
:102AE00070E083E39DE00E945B2462B3617070E05C
:102AF0008BEA9CE00E944B24C6E0D1E088819927B4
:102B000087FD9095692F661F6627661F70E086EA2D
:102B10009CE00E945B2462B362FB662760F970E070
:102B20008BEA9CE00E944B24688166FB662760F973
:102B300070E083EA9CE00E945B24688165FB662765
:102B400060F970E08BEA9CE00E944B24688163FB93
:102B5000662760F970E08FE99CE00E945B24688141
:102B60006295617070E08BEA9CE00E944B24688162
:102B70006695617070E08BE99CE00E945B2468813F
:102B800062FB662760F970E08BEA9CE0DF91CF91F1
:102B90000C944B24FF920F931F93CF93DF9300D09D
:102BA0001F921F92CDB7DEB785E0EAE2F3E0DE01C7
:102BB000119601900D928A95E1F7989A9A9A8091D0
:102BC00007018062809307018091070180618093F3
:102BD0000701809107018460809307018E010F5FD8
:102BE0001F4FF12CF80161918F018F2D0E944E151E
:102BF000F394F5E0FF12F6CF0F900F900F900F9027
:102C00000F90DF91CF911F910F91FF9008952F9218
:102C10003F924F925F926F927F928F929F92AF926C
:102C2000BF92CF92DF92EF92FF920F931F93CF93B9
:102C3000DF93CDB7DEB7E0970FB6F894DEBF0FBED7
:102C4000CDBF1C012091D202DC01CD90DC90119708
:102C500024FF0FC0C2FE02C00C94DC22C1FE09C0DA
:102C600016968D919C9117978F36910511F00C94C3
:102C7000DC22C2FECAC2F1018085918584319105B2
:102C800009F4FAC150F48430910518F4029738F52C
:102C90001AC0049709F0ADC2B4C18A35910509F490
:102CA00012C240F48531910509F4EAC14C9709F04C
:102CB000A0C2E9C18B35910509F408C28C35910594
:102CC00009F097C207C2C1010E941472882309F457
:102CD00090C241E061E081E00E94175E8AC280916B
:102CE000820E9091830EA091840EB091850E898BF7
:102CF0009A8BAB8BBC8B8091860E9091870EA091A6
:102D0000880EB091890E8D8B9E8BAF8BB88F809182
:102D10008A0E90918B0EA0918C0EB0918D0E898FA2
:102D20009A8FAB8FBC8FC1010E941472882309F463
:102D300060C2D10112961C91129710FF07C097969E
:102D40006D917D918D919C919A9703C060E070E0A8
:102D5000CB010E9416126B017C016D8F7E8F8F8FCD
:102D600098A311FF06C0F10163A574A585A596A5DA
:102D700003C060E070E0CB010E9416126DA37EA339
:102D80008FA398A769A37AA38BA39CA34090820EDC
:102D90005090830E6090840E7090850E49825A8206
:102DA0006B827C828090860E9090870EA090880E19
:102DB000B090890E8D829E82AF82B88680918A0EF5
:102DC00090918B0EA0918C0EB0918D0E89879A8771
:102DD000AB87BC8760917E0E70917F0E8091800ED4
:102DE0009091810E0E94C2B920917F183091801875
:102DF00040918118509182180E94C5BB6D877E87D3
:102E00008F87988B12FFD8C0D1019F966D917D91CD
:102E10008D919C91D2970E9416126DA37EA38FA3D1
:102E200098A729893A894B895C89C301B2010E941C
:102E300059B86B017C012D893E894F89588DC50198
:102E4000B4010E9459B8762E672E582E492E20E0E4
:102E500030E040E850E46DA17EA18FA198A50E94CA
:102E6000C5BB2DA13EA14FA158A50E94C5BB4B01DA
:102E70005C012C2D3D2D4E2D5F2D6C2D7D2DC70120
:102E80000E94C5BB9B01AC01C501B4010E9459B8A9
:102E90004B015C01B301C201272F362F492F582F58
:102EA000F301A52DB42D6F2F7E2FCD010E94C5BB40
:102EB0009B01AC01C501B4010E9459B80E9432BC0B
:102EC0004B015C01B301C201272F362F492F582F28
:102ED0006C2D7D2DC7010E9430BB9B01AC01C5014B
:102EE000B40190580E9427B94B01A82EB92E9B011E
:102EF000482F592F0E9473BC882329F08DEA9CE04B
:102F00000E94932376C1F10180859185039721F476
:102F1000B7FAB094B7F8B09420E030E0A9016DA101
:102F20007EA18FA198A50E9420B987FF0DC0B7FA96
:102F3000B094B7F8B0942DA13EA14FA158A5505818
:102F40002DA33EA34FA358A7A5019401F301A52DDE
:102F5000B42D6F2F762DCD010E94C5BB9B01AC0116
:102F60006C2D7D2DC7010E9459B820E030E040E073
:102F70005FE30E94C5BB6D8F7E8F8F8F98A3A501E5
:102F800094016C2D7D2D8E2D9F2D0E94C5BB9B0124
:102F9000AC01D301F2016B2F762D8F2F9E2F0E9453
:102FA0005AB820E030E040E05FE30E94C5BB69A36F
:102FB0007AA38BA39CA30CC02DA13EA14FA158A521
:102FC000C701B6010E9430BB6DA37EA38FA398A753
:102FD000EE24E394D10118968D919C911997029754
:102FE00009F0E12C0DA11EA12FA138A5AE01435E71
:102FF0005F4FBE016F5F7F4FCE0141960E94846399
:10300000F8C00E943E12F1018081918193FF05C0BA
:1030100083A094A0A5A0B6A003C0812C912C54013C
:1030200092FF0DC0D1015F962D913D914D915C9124
:103030009297A8EEB3E00E94F6BC4B015C010E949F
:10304000DEAE6B017C01C80CD91CEA1CFB1C04C061
:103050000E94BA410E9421120E94DEAEA701960191
:10306000261B370B480B590BDA01C901811594490E
:10307000A543B74768F3BDC081E080938318B9C00A
:1030800010928318B6C0C60188739927892B89F0DE
:10309000A60195E0569547959A95E1F74170B601DE
:1030A00024E0769567952A95E1F76170C3FE05C027
:1030B00002C061E041E081E001C080E00E94A477AD
:1030C0000E94C17096C010929F0E93C081E08093C1
:1030D0009F0E8FC02091820E3091830E4091840EFE
:1030E0005091850E4090860E5090870E6090880E0D
:1030F0007090890E80918A0E90918B0EA0918C0E0B
:10310000B0918D0E89A79AA7ABA7BCA7C3FE14C028
:1031100062857385848595852DA73EA74FA758ABFB
:103120000E9416122DA53EA54FA558A90E9459B878
:10313000962E7DA35C0104C0912C1DA2A12CB12C64
:10314000C4FE10C0F10166857785808991890E944F
:103150001612A30192010E9459B8562E672E782E9E
:10316000892E04C0512C612C712C812CC5FE10C0FD
:10317000D10152966D917D918D919C9155970E94B0
:10318000161229A53AA54BA55CA50E9459B804C002
:1031900060E070E080E090E0E62EF72E082F192F17
:1031A000252D362D472D582DADA1692D7A2F8A2D2D
:1031B0009B2D0E947471F101808186FF1AC066897F
:1031C0007789808D918D0E94161220911B0330917A
:1031D0001C0340911D0350911E030E94C5BB0E9419
:1031E0008FB960939A0E70939B0E80939C0E909370
:1031F0009D0E0E94DEAE6093CE0D7093CF0D809336
:10320000D00D9093D10D0C941023C1FC02C00C94EE
:10321000C822D10116968D919C91179785379105FB
:1032200009F4B1C508F079C08135910509F404C5E8
:10323000A8F58A31910509F42AC1A8F486319105CF
:1032400009F401C148F48431910509F4EEC04597B1
:1032500011F00C941023EFC08831910509F408C1D6
:1032600008F011C1F6C08E31910509F442C148F44D
:103270008B31910509F428C14C9711F00C9410235F
:1032800029C18A32910509F450C18035910509F4AC
:10329000C4C4809711F00C94102338C1893691056D
:1032A00009F405C2E8F48435910509F4D1C450F459
:1032B0008235910509F4C5C48335910511F00C944C
:1032C0001023C2C48C35910509F4FBC488369105DE
:1032D00009F47CC18535910511F00C941023D4C4F8
:1032E0008D36910509F4E6C150F48A36910509F44A
:1032F0007EC48B36910511F00C94102386C482375E
:10330000910509F43DC58337910509F432C58F361F
:10331000910511F00C9410231AC58F3D910509F405
:10332000BAC6E8F58B3C910509F408C6D8F48C3888
:10333000910509F499C150F48737910509F431C515
:103340008837910511F00C94102357C5893C9105DD
:1033500009F45CC508F0A6C58E3B910511F00C94EC
:10336000102365C38E3C910509F443C650F48C3C90
:10337000910509F4F6C58D3C910511F00C941023CC
:1033800035C68C3D910509F468C68D3D910509F45B
:1033900073C68F3C910511F00C9410232EC6803912
:1033A000B1E09B0709F4F8C600F58B3F910511F4D5
:1033B0000C94102250F4883E910509F481C6893E90
:1033C000910511F00C941023A9C68F32F1E09F07EC
:1033D00009F4E2C38E3521E0920709F4C7C78C32A5
:1033E000914011F00C941023B6C3853F41E094073F
:1033F00009F4ABC768F48239A1E09A0709F400C761
:1034000008F4CDC6843F914011F00C94102395C769
:10341000873FF1E09F0709F4E9C508F4A4C78C3899
:10342000934011F00C9410237FC788E898E10E9424
:10343000F37A0C9410231092141988E898E10E94F2
:1034400017780C94102310921419109215190C94DB
:103450001023D7FC02C00C941023D101D3966D9198
:103460007C91D49788E898E10E94147B0C941023F7
:1034700080911519882311F40C94102381E0809316
:1034800014190C941023109214190C941023D2FCCC
:1034900002C00C941023F101478D50A161A172A1CB
:1034A00080911519882311F40C9410234093E5188A
:1034B0005093E6186093E7187093E81886EC98E14B
:1034C0000E9435810C94102388E898E10E94737B58
:1034D0000C941023D7FC02C00C941023D101D39676
:1034E0006D917C91D49788E898E10E94997B0C9427
:1034F0001023D7FC02C00C941023F10163A974A916
:1035000088E898E10E94FC7B0C941023D7FC02C051
:103510000C941023D101D3966D917C91D49788E8B7
:1035200098E10E942C7C0C941023CC24BCE0DB227C
:10353000C114ECE0DE0611F00C941023F101878D2C
:1035400090A1A1A1B2A1B7FF02C00C9410238F3F9C
:103550009105A105B10509F014F40C94E7220C942F
:103560001023F901EE0FFF1FEF50FE4FE491F0E042
:10357000E017F10711F40C9410232F5F3F4F2C3309
:10358000310579F717FF02C00C94102361E08F2DED
:103590000E9418B0D1015F966C918F2D0E9450B09F
:1035A000F101678D70A18F2D0E94B8ADB80182E83E
:1035B0009CE00E945B24D1015F966D917C91909775
:1035C0008DE79CE00E944B240C9410230E946B3AE0
:1035D00081110C9410230E94DEAE6093CE0D709387
:1035E000CF0D8093D00D9093D10D8091D20283FFA7
:1035F00002C00C941023F1018081918193FDEFC7EB
:1036000092FF09C0878D90A1A1A1B2A1892B8A2B1D
:103610008B2B09F4E4C7D1018D919C91119792FDF8
:1036200002C00C94102391FF0DC05F966D917D91A7
:103630008D919C9192970E94C2B9F101468D0E9492
:103640004136EEC70091400310914103D1015F96CE
:103650006D917D918D919C9192970E94C2B9F801D4
:1036600040810E944136DCC70E946B3A8111D8C765
:103670000E94DEAE6093CE0D7093CF0D8093D00D7F
:103680009093D10D8091D20283FDCAC7D1018D9153
:103690009C91119792FFC4C75F966D917D918D911A
:1036A0009C9192970E94C2B90E94F535B9C70E94B9
:1036B000E412B6C70E946B3A8111B2C70E94DEAE17
:1036C0006093CE0D7093CF0D8093D00D9093D10D5C
:1036D0008091D20283FDA4C76DE272E08CE39BE18E
:1036E0000E94B7978CE39BE10E944C9A0E943E1285
:1036F0008090400390904103F1018081918191FF7E
:1037000007C0268D211104C0BEE48B2EB2E09B2E93
:1037100092FF0DC0D1015F966D917D918D919C912D
:1037200092970E94C2B9F40140810E944136D401AF
:10373000DA962D913D914D915C91DD97D6966D91E4
:103740007D918D919C91D9970E9459B87B018C01F4
:1037500020E030E0A9017F2D912F0E9423BB181695
:103760006CF420E030E040E050E46E2D7F2D802F9F
:10377000912F0E9420B987FF0EC052C720E030E091
:1037800040E050EC6E2D7F2D802F912F0E9423BBA7
:1037900018160CF445C733243394F40124A935A931
:1037A00082A993A9821793070CF0312C0E94DEAEF8
:1037B00069A77AA78BA79CA710E0412C512C320156
:1037C0000E94DEAE6DA37EA38FA398A7DC01CB0180
:1037D00029A53AA54BA55CA5821B930BA40BB50BA1
:1037E000893E9340A105B10550F00E94E4128DA1DD
:1037F0009EA1AFA1B8A589A79AA7ABA7BCA70E9415
:10380000211280914003909141038816990609F096
:1038100062C0D4019396ED90FC9094971E141F04FF
:103820000CF059C0111156C0332009F4F2C691961C
:103830006D917C919297882777FD8095982F0E94B3
:10384000C2B99B01AC01F40166A977A980AD91AD25
:103850000E9423BB18160CF0D5C6662777276E1971
:103860007F09882777FD8095982F0E94C2B9209103
:103870001B0330911C0340911D0350911E030E94B5
:10388000C5BB0E948FB91F921F92D40152962C91F2
:1038900052972F9351962C9151972F9350962C918C
:1038A00050972F931F962C912F935B016C01E12C65
:1038B000F12C870120E030E0A90160E070E0CB014D
:1038C0000E94B6620F900F900F900F900F900F9084
:1038D00011E098C611E0411451046104710409F02B
:1038E0004BC03320C9F020E030E040E85FE3F40152
:1038F00062AD73AD84AD95AD0E9459B89B01AC012A
:10390000D401D6966D917D918D919C91D9970E940D
:1039100023BB87FF1AC051CF20E030E040E85FE3CF
:10392000F40162AD73AD84AD95AD0E945AB89B01B0
:10393000AC01D401D6966D917D918D919C91D997D2
:103940000E9420B918160CF438CFF401A78DB0A14D
:1039500028EE33E00E94EFBC2B013C012DA13EA1DB
:103960004FA158A5420E531E641E751E41145104EA
:103970006104710409F424CFD301C2012DA13EA139
:103980004FA158A5821B930BA40BB50B811594492D
:10399000A543B74708F414CF1123E1F18091400308
:1039A0009091410388169906A9F5D40193966D91DB
:1039B0007C919497882777FD8095982F0E94C2B9B3
:1039C00020911B0330911C0340911D0350911E0355
:1039D0000E94C5BB0E948FB91F921F92F4012289D9
:1039E0002F9321892F9320892F9327852F935B0174
:1039F0006C01E12CF12C870120E030E0A90160E0AE
:103A000070E0CB010E94B6620F900F900F900F9064
:103A10000F900F901092711B0E94DEAE6093CE0D3E
:103A20007093CF0D8093D00D9093D10DF9C523FDE8
:103A3000F7C56EE372E08CE39BE10E94B7978CE3DD
:103A40009BE10E944C9A0E943E12D1018D919C9163
:103A5000119792FF0AC05F966D917D918D919C9117
:103A600092970E94C2B90E94F535209119023091B7
:103A70001A0240911B0250911C0260911502709134
:103A8000160280911702909118020E9459B87B018A
:103A90008C0120E030E0A9017F2D912F0E9423BBF3
:103AA00018166CF420E030E040E450E46E2D7F2DD9
:103AB000802F912F0E9420B987FF0EC0B1C520E052
:103AC00030E040E450EC6E2D7F2D802F912F0E942E
:103AD00023BB18160CF4A4C50E94DEAE6B017C015A
:103AE00013C00E94DEAE6C197D098E099F09693EE4
:103AF00073408105910530F00E94E4120E94DEAE11
:103B00006B017C010E94211220E030E040E05FE385
:103B1000609115027091160280911702909118021F
:103B20000E945AB82091190230911A0240911B024A
:103B300050911C020E9420B987FDD3CF1092711BB7
:103B40000E94DEAE6093CE0D7093CF0D8093D00DAA
:103B50009093D10D65C5D2FE04C0F101678D70A1AF
:103B600002C061E070E0D3FE06C0D10193960D91D2
:103B70001C91949702C008EE13E020E030E0A90108
:103B80008FE40E94BCB0B80180E090E00E941AAFC0
:103B90008FE40E94CDB344C5D2FE04C0F101678D0D
:103BA00070A102C066E970E0D3FE09C0D10193960E
:103BB0000D911C9194970230110524F405C000E08A
:103BC00010E002C002E010E0882777FD8095982F72
:103BD0000E94C2B9AB01BC01F801EE0FFF1FE65F06
:103BE000FD4F202F808191810E942A3719C5D3FA79
:103BF000662760F9D2FE04C0F101878D90A102C052
:103C00008FEF90E00E9473130BC5D3FA662760F91B
:103C100080E090E00E94731303C50E943E120E9450
:103C2000DEAE6093CE0D7093CF0D8093D00D909348
:103C3000D10D9D9AA598F4C40E943E129D9AA59A12
:103C4000EFC410929E0EECC481E080939E0EE8C4F7
:103C5000D2FE14C0D1015F962D913D914D915C91A2
:103C60009297A8EEB3E00E94F6BC6093CD027093E9
:103C7000CE028093CF029093D002D2C40E943E1213
:103C800081E00E946F6CCCC4D2FE12C0F101278D7E
:103C900030A141A152A1A8EEB3E00E94F6BC60930E
:103CA000CA0D7093CB0D8093CC0D9093CD0DB8C4FD
:103CB0001092CA0D1092CB0D1092CC0D1092CD0D1A
:103CC000AFC4C3FE0DC0F10182859385A485B5857F
:103CD00080930F0390931003A0931103B0931203EA
:103CE000D1018C9184FF0EC01E968D919D910D90F7
:103CF000BC91A02D8093130390931403A0931503FC
:103D0000B0931603F101808185FF0CC082899389ED
:103D1000A489B5898093170390931803A09319037E
:103D2000B0931A03D1018C9186FF0EC020914003FD
:103D300030914103F10186899789A08DB18DF901F8
:103D400081879287A387B4870E94E56C69C4D2FEFD
:103D500005C0D1015F968C918093D2028091D202EE
:103D600083FF5EC440E060E070E0CB010E9441361A
:103D700057C48AE49EE00E948F230E94931350C48C
:103D80000E944C124DC4D7FE4BC4F10163A974A923
:103D90008CE39BE10E94F3978CE39BE10E944C9A99
:103DA0003FC40E943E1280E79CE00E94812302995A
:103DB00003C087E79CE002C08AE79CE00E94812361
:103DC00089E69CE00E948123019903C087E79CE07B
:103DD00002C08AE79CE00E94812382E69CE00E9468
:103DE0008123379903C087E79CE002C08AE79CE003
:103DF0000E9481230E940C1213C4CC24FCE0DF2219
:103E0000C1142CE0D20609F4EDC30AC4C3FE11C0EC
:103E1000D1011A966D917D918D919C911D970E9473
:103E20008FB96093E3027093E4028093E50290936C
:103E3000E602F101808184FF0EC066857785808966
:103E400091890E948FB96093E7027093E802809392
:103E5000E9029093EA02D1018C9185FF10C052963D
:103E60006D917D918D919C9155970E948FB9609332
:103E7000EB027093EC028093ED029093EE02F1015D
:103E8000808186FF61CF66897789808D918D0E94C0
:103E90008FB96093EF027093F0028093F1029093D8
:103EA000F20252CFC3FE11C0D1011A966D917D91DD
:103EB0008D919C911D970E948FB96093D30270934E
:103EC000D4028093D5029093D602F101808184FFC1
:103ED0000EC066857785808991890E948FB960932D
:103EE000D7027093D8028093D9029093DA02D1015D
:103EF0008C9185FF10C052966D917D918D919C9112
:103F000055970E948FB96093DB027093DC02809317
:103F1000DD029093DE02F101808186FF15CF668974
:103F20007789808D918D0E948FB96093DF027093A5
:103F3000E0028093E1029093E20206CFD2FE70C3CA
:103F4000F101878D90A1A1A1B2A1181619061A0638
:103F50001B061CF08093C50263C381E08093C502F9
:103F60005FC3E0914003F0914103D2FC02C0BF96D1
:103F700010C0F101878D90A1A1A1B2A1B7FD50C3DE
:103F8000892B8A2B8B2B19F0EEE0F2E002C0EDE7D3
:103F9000F2E0C3FE0BC0D1011A964D915D916D9177
:103FA0007C911D97428F538F648F758FD1018C91B7
:103FB00084FF0AC01E964D915D916D917C91519741
:103FC000468F578F60A371A3D1018C9185FF0AC0E2
:103FD00052964D915D916D917C91559742A353A35B
:103FE00064A375A3CF010E94C0301AC30E94942F0E
:103FF00017C3C1010E949B2E13C3C3FE0DC0F10164
:1040000082859385A485B5858093F30D9093F40DF7
:10401000A093F50DB093F60DC6FE11C0209140039C
:1040200030914103F10186899789A08DB18DF90105
:10403000878B908FA18FB28F80810E943331409106
:10404000F30D5091F40D6091F50D7091F60D22E095
:104050008CE59CE00E94D525E3C2D2FE06C0F101AA
:10406000878D90A1A1A1B2A104C084E690E0A0E058
:10407000B0E00E940E13D4C2D2FE06C0F101878DBB
:1040800090A1A1A1B2A104C084E690E0A0E0B0E0BC
:104090000E945E13C5C2D2FEC3C24FB7F89480918E
:1040A000841890918518D1015F962D913C9190973D
:1040B000820F931F90938518809384184FBFB0C2CE
:1040C0006091C60D7091C70D8DE49CE00E945B2449
:1040D0006091C80D7091C90D8BE39CE00E945B2438
:1040E0004091C20D5091C30D6091C40D7091C50DEA
:1040F00022E082E39CE00E94D5251092C90D109227
:10410000C80D1092C70D1092C60D1092C20D1092DC
:10411000C30D1092C40D1092C50D82C220914003B0
:1041200030914103C4FE0AC0F10186859785A089BC
:10413000B189F90181A792A7A3A7B4A7D90199963C
:104140004D915D916D917C919C9722E088E29CE07D
:104150000E94BA25F10180812091400330914103F2
:1041600083FF09C082859385A485B585F90185A360
:1041700096A3A7A3B0A7D90195964D915D916D9196
:104180007C91989722E08AE19CE00E94BA250E94E7
:104190000C120E94B76C44C20E943E1241C2809130
:1041A0008E0E90918F0EA091900EB091910E8093F3
:1041B000DC0D9093DD0DA093DE0DB093DF0D8091AB
:1041C000920E9091930EA091940EB091950E8093C3
:1041D000D80D9093D90DA093DA0DB093DB0D80919B
:1041E000960E9091970EA091980EB091990E809393
:1041F000D40D9093D50DA093D60DB093D70D10C2CA
:10420000C60188709927C3FE0EC0C4FE0CC096017B
:1042100045E0369527954A95E1F7B1E02B277724BD
:104220007394722202C077247394D0FE0DC0D10122
:104230005A96EC915A975B96FC915B975C966C90C2
:104240005C975D965C9008C0E091FB0DF091FC0DD1
:104250006090FD0D5090FE0D711002C0C5FE17C09C
:10426000E090D40DF090D50D0091D60D1091D70DA2
:104270004091960E5091970E6091980E7091990E04
:10428000E41AF50A060B170B711006C003C0E12CE7
:10429000F12C8701C4FE17C02091D80D3091D90DA3
:1042A0004091DA0D5091DB0D8090920E9090930E1C
:1042B000A090940EB090950E281939094A095B090F
:1042C000711006C003C020E030E0A901892BA9F0DD
:1042D0006091DC0D7091DD0D8091DE0D9091DF0D10
:1042E00080908E0E90908F0EA090900EB090910EB8
:1042F000681979098A099B0903C060E070E0CB0165
:10430000DD24D394DF921F925F926F92FF93EF931D
:10431000A12CB12C65010E94B6620F900F900F90F6
:104320000F900F900F907CC1CC24BCE0DB22C11415
:10433000ECE0DE0609F45FC173C180E00E9434291D
:1043400082E398E00E94AB236BC10E94A52BE09111
:104350004003F091410380810E94333180E198E075
:104360000E94AB235DC10E94AB265AC18AE492E051
:104370000E948F23D1018D919C9192FD05C0F10186
:10438000808183FF16C00BC010E0D1015F966C9155
:10439000812F0E944E151F5F1530B9F7F0CFF10144
:1043A00062857385848595850E9494B980E00E941A
:1043B0004E15D1018C9184FF0BC01E966D917D919D
:1043C0008D919C9151970E9494B981E00E944E1565
:1043D000F101808185FF09C062897389848995898B
:1043E0000E9494B982E00E944E15D1018C9186FF03
:1043F0000BC056966D917D918D919C9159970E941D
:1044000094B983E00E944E15F1018081918193FF60
:1044100004C063A184E00E944E150E94671500C18C
:10442000D2FEFEC0F101878D90A1A1A1B2A100979B
:10443000A105B10569F410924F0E1092500E109222
:10444000510E1092520E87E09CE00E948F23E8C02C
:1044500040914F0E5091500E6091510E7091520E3E
:104460000197A105B10501F58FEE9BE00E9469243B
:1044700060914F0E7091500E8091510E9091520E9E
:104480000E94C2B920917B1830917C1840917D1810
:1044900050917E180E94C5BBAB01BC0122E08FED9C
:1044A0009BE00E94D525BCC082E090E0A0E0B0E097
:1044B000F101878F90A3A1A3B2A377FF0FC07095DE
:1044C0006095509541955F4F6F4F7F4F40934F0ED2
:1044D0005093500E6093510E7093520E1092FF0D38
:1044E0001092000E1092010E1092020EC0904F0E0C
:1044F000D090500EE090510EF090520EC701B601D0
:104500000E94C2B99B01AC0160917B1870917C182C
:1045100080917D1890917E180E94C5BB6093030E18
:104520007093040E8093050E9093060EC092230E96
:10453000D092240EE092250EF092260E10928E0E4E
:1045400010928F0E1092900E1092910E1092920E69
:104550001092930E1092940E1092950E1092960E49
:104560001092970E1092980E1092990E63E478E1D3
:104570008EE89EE00E94345987EB9BE00E948F23D7
:1045800080E00E94342988EA9BE00E948F2348C083
:10459000D1FE08C00E943E12D1015E968C910E940D
:1045A00033313EC022FF3CC080E49DE00E94812365
:1045B000C1010E948C4334C00E94DEAE6093CE0DD8
:1045C0007093CF0D8093D00D9093D10D29C0F10140
:1045D000F3A00F2D14A120E030E00C94B11A0E943A
:1045E0003E1219C8D10193966C9193975F968C9166
:1045F0000E94DD8E15C0F101678D70A183A10E941C
:1046000076140EC0411451046104710409F46BC99D
:10461000B3C9411451046104710409F47DC9ACC9E2
:10462000E0960FB6F894DEBF0FBECDBFDF91CF91FD
:104630001F910F91FF90EF90DF90CF90BF90AF90C0
:104640009F908F907F906F905F904F903F902F90B2
:1046500008950E94BA410E94CC3EEC018CE39BE19C
:104660000E9448AC2097B1F080911619882361F020
:10467000888181FF12C08E819F814D9771F413C094
:10468000CE010E944A4403C0CE010E940716CE010B
:104690000E945D440E94D075DCCFBE0188E898E19D
:1046A0000E946478EDCF88E898E10E94DD7BE8CF36
:1046B0000C9443460E942D46209108023091090235
:1046C0008217930724F490930902809308020895B7
:1046D0006091080270910902809106029091070290
:1046E0006817790744F4709307026093060286E323
:1046F0009DE00C944B240895682F80E394E00C9483
:10470000C744CF93DF93EC0102C00E947C23FE01DB
:10471000849121968111F9CFDF91CF9108950E9464
:1047200081230C940C12CF93DF93EC0181E39EE084
:104730000E948123CE01DF91CF910C948F23CF93E0
:10474000DF93EC018BE29EE00E948123CE01DF919A
:10475000CF910C948F23CF93DF93EC018BE29EE0FB
:104760000E948123CE01DF91CF910C948123CF93BE
:10477000DF93EC0182E29EE00E948123CE01DF9173
:10478000CF910C948F23CF93DF93EC0102C00E9452
:104790007C2389918111FBCFDF91CF910895CF9335
:1047A000DF93EB010E948123CE01DF91CF910C9426
:1047B000C323CF93DF93EB010E948123CE010E949C
:1047C000C323DF91CF910C940C128F929F92AF92E2
:1047D000BF92CF92DF92EF92FF920F931F93CF93EE
:1047E000DF93CDB7DEB72B970FB6F894DEBF0FBEC1
:1047F000CDBF6B017C011B868E01055F1F4F8AE0D8
:10480000882E912CA12CB12CC701B601A5019401D1
:104810000E9441BD8C2D805D9AE0299F8019112452
:10482000F80182938F0169017A01C114D104E10476
:10483000F10451F7CF010E94C3232B960FB6F894D1
:10484000DEBF0FBECDBFDF91CF911F910F91FF90C3
:10485000EF90DF90CF90BF90AF909F908F90089592
:10486000CF92DF92EF92FF926B017C0197FF0BC01A
:104870008DE20E947C23F094E094D094C094C11CFB
:10488000D11CE11CF11CC701B601FF90EF90DF9035
:10489000CF900C94E523CF93DF93EB010E9481230B
:1048A000BE01882777FD8095982F0E943024DF91E4
:1048B000CF910C940C12CF93DF93EB010E948123D4
:1048C000BE01882777FD8095982FDF91CF910C94BA
:1048D0003024CF93DF9300D01F92CDB7DEB749834A
:1048E0005A836B837C830E94812349815A816B8127
:1048F0007C81CB01BA010E9430240F900F900F9061
:104900000F90DF91CF910C940C12CF93DF9300D0D6
:104910001F92CDB7DEB749835A836B837C830E9495
:10492000812349815A816B817C81CB01BA010F902F
:104930000F900F900F90DF91CF910C943024CF9374
:10494000DF9300D01F92CDB7DEB749835A836B83C4
:104950007C830E94812349815A816B817C81CB01B8
:10496000BA010E94E5230F900F900F900F90DF91F6
:10497000CF910C940C12CF93DF9300D01F92CDB740
:10498000DEB749835A836B837C830E9481234981EC
:104990005A816B817C81CB01BA010F900F900F90EF
:1049A0000F90DF91CF910C94E523EF92FF920F933C
:1049B0001F93CF93DF931F921F92CDB7DEB7042FC3
:1049C00069837A830E9481236981E62E7A81F72E9A
:1049D00010E00BC0F70141915191619171917F01FC
:1049E00089EA9CE00E9485241F5F1013F3CF0F908B
:1049F0000F90DF91CF911F910F91FF90EF900C944A
:104A00000C128F929F92AF92BF92CF92DF92EF9251
:104A1000FF92CF936B017C01C42F9B01AC010E94DC
:104A200073BC882319F08CE39EE01AC0460157013D
:104A3000E894B7F82FEF3FEF4FE75FE7C501B40108
:104A40000E9473BC811117C02FEF3FEF4FE75FE764
:104A5000C501B4010E9420B918166CF488E39EE0E9
:104A6000CF91FF90EF90DF90CF90BF90AF909F904D
:104A70008F900C94812320E030E0A901C701B6019A
:104A80000E9420B987FF07C08DE20E947C23F7FABD
:104A9000F094F7F8F094B12C60E070E080E09FE3D0
:104AA00007C020E030E040E251E40E9427B9B3940F
:104AB000BC12F7CF262F372F482F592FC701B60129
:104AC0000E945AB86B017C017D2D9F2D0E9494B9E4
:104AD0004B015C010E94C0B99B01AC016C2D7D2D86
:104AE0008E2D9F2D0E9459B8F62EE72ED82EC92E56
:104AF000B401C5010E94E523CC2381F18EE20E941E
:104B00007C232CC020E030E040E251E4D701F601E4
:104B10006B2F7E2D8F2F9C2D0E94C5BB4B015C01FE
:104B2000792D9B2D0E948FB96B01EE24D7FCE09468
:104B3000FE2CC701B6010E943024C701B6010E94B5
:104B4000C2B99B01AC01682D792D8A2D9B2D0E9445
:104B500059B8F62EE72ED82EC92EC150C111D2CF8A
:104B6000CF91FF90EF90DF90CF90BF90AF909F904C
:104B70008F900895CF92DF92EF92FF92CF93DF93C1
:104B80001F92CDB7DEB76A017B0129830E94812382
:104B90002981422FC701B6010F90DF91CF91FF907D
:104BA000EF90DF90CF900C940125CF92DF92EF929F
:104BB000FF92CF93DF931F92CDB7DEB76A017B01DF
:104BC00029830E9481232981422FC701B6010E94B7
:104BD00001250F90DF91CF91FF90EF90DF90CF9064
:104BE0000C940C12CF93DF9300D01F92CDB7DEB799
:104BF00049835A836B837C8344E050E0BC01CE013F
:104C000001960E949BBC0F900F900F900F90DF9128
:104C1000CF910895CF93DF9300D01F92CDB7DEB729
:104C200044E050E0BC01CE0101960E9477BC59815E
:104C30004A813B812C81652F742F832F922F0F90F7
:104C40000F900F900F90DF91CF91089547ED53EAA9
:104C50006FE172E488E293E00E94F22540E050E0C8
:104C600060EA70E48CE293E00E94F22540E050E0BC
:104C700066E173E488E493E00E94F22543E353E3A2
:104C800064E371EC80E293E00E94F22540E050E0A2
:104C900060ED70EC84E293E00E94F2254CE55FE861
:104CA0006AE872EC80E393E00E94F22540E050E075
:104CB00060E272EC84E393E00E94F2254CE55FE849
:104CC0006AE872E488E393E00E94F22540E050E055
:104CD00060E272EC8CE393E00E94F22540E050E049
:104CE000BA0180E493E00E94F22540E050E060EADF
:104CF00072E484E493E00E94F22540E050E067E82B
:104D000073E481E793E00E94F22546E656E66EEFF3
:104D100072E485E793E00E94F22564EB70E089E796
:104D200093E00E94BBBC66E470E08BE793E00E94D6
:104D3000BBBC60E070E08DE793E00E94BBBC60E02C
:104D400070E08FE793E00E94BBBC60E070E081E818
:104D500093E00C94BBBC80E092ECA1E0B0E08093C7
:104D6000C9029093CA02A093CB02B093CC021092D6
:104D7000CA0D1092CB0D1092CC0D1092CD0D80E487
:104D80009EE7A5E0B0E08093CD029093CE02A09381
:104D9000CF02B093D00285E595E5A5E5B2E4809316
:104DA0000F0390931003A0931103B0931203809309
:104DB000130390931403A0931503B09316038093E9
:104DC000170390931803A0931903B0931A0380E07C
:104DD00090E0A0E8BFE380931B0390931C03A09393
:104DE0001D03B0931E0380E090E0A6E9B3E4809336
:104DF000FF0290930003A0930103B09302038093FA
:104E0000030390930403A0930503B09306038093D8
:104E1000070390930803A0930903B0930A0380E06B
:104E200090E0A0EAB2E48093F3029093F402A0939E
:104E3000F502B093F6028093F7029093F802A093E4
:104E4000F902B093FA028093FB029093FC02A093C4
:104E5000FD02B093FE0280E090E0A0EAB1E480930E
:104E6000F30D9093F40DA093F50DB093F60D8CED2A
:104E700095E0A0E0B0E08093E3029093E402A09379
:104E8000E502B093E6028093E7029093E802A093D4
:104E9000E902B093EA028093EB029093EC02A093B4
:104EA000ED02B093EE0288EB9BE0A0E0B0E08093CF
:104EB000D3029093D402A093D502B093D6028093EC
:104EC000D7029093D802A093D902B093DA028093CC
:104ED000DB029093DC02A093DD02B093DE0231E0AE
:104EE000309321022FEF2093260280E58093270242
:104EF00080E090E0A4E4B3E4809328029093290238
:104F0000A0932A02B0932B028BE794E1A4E0B2E4D1
:104F100080932C0290932D02A0932E02B0932F0227
:104F200080E090E0A1E9B3E48093300290933102F5
:104F3000A0933202B09333022093340280E090E8D1
:104F4000A5EBB3E48093130E9093140EA093150E6B
:104F5000B093160E80930B0E90930C0EA0930D0E33
:104F6000B0930E0E8093030E9093040EA093050E43
:104F7000B093060E10920F0E1092100E1092110E9A
:104F80001092120E1092070E1092080E1092090E37
:104F900010920A0E1092FF0D1092000E1092010E48
:104FA0001092020E86E696EEAFE9B3E480935702C4
:104FB00090935802A0935902B0935A0280E090E077
:104FC000A8E4B2E480935D0290935E02A0935F0236
:104FD000B093600280E090E0A0E2B2E480936502CA
:104FE00090936602A0936702B093680280E090E419
:104FF000ACE1B6E48093610290936202A0936302F5
:10500000B0936402309390028CE8809395028CE315
:10501000809396028CEE91E5A8E6B1E48093970226
:1050200090939802A0939902B0939A0283E393E33A
:10503000A3E7BFE380939B0290939C02A0939D0201
:10504000B0939E0285E89BEEADE5B2E480939F02AB
:105050009093A002A093A102B093A2022093A30276
:1050600088E092E0A0E0B0E0809353029093540275
:10507000A0935502B093560285E893E0A0E0B0E01B
:1050800080934F0290935002A0935102B09352022A
:1050900081E090E090936E0280936D0286E990E04B
:1050A0009093700280936F021092720210927102BC
:1050B0002093C10210927302109274021092750232
:1050C0001092760210927702109278021092790272
:1050D00010927A020E9426260E94E56CE09140031D
:1050E000F091410380810E9433310E9406318FEE9E
:1050F00097E00C94AB2380E090E00E9487BC813065
:1051000061F48BE490E00E948FBC6093C9027093BD
:10511000CA028093CB029093CC0208951F93CF9341
:10512000DF9310E0C0E0D0E0C836D10521F0CE0119
:105130000E9487BC180F2196C11588E0D807A1F7F7
:10514000812FDF91CF911F910895CF92DF92EF923F
:10515000FF92CF93DF931F92CDB7DEB720E030E010
:10516000A9016091E10D7091E20D8091E30D9091A4
:10517000E40D0E9420B9882309F46EC00E94DEAEBF
:10518000C090E50DD090E60DE090E70DF090E80DB1
:105190006C197D098E099F0928EE33E040E050E04C
:1051A0000E9441BD69017A018DE790E00E948FBCA9
:1051B000AB01BC014C0D5D1D6E1D7F1D8DE790E0A8
:1051C0000E94B3BC81E890E00E940A266B017C013A
:1051D0002FE632E143E85AE36091E10D7091E20D70
:1051E0008091E30D9091E40D0E94C5BB9B01AC0141
:1051F000C701B6010E945AB8AB01BC0181E890E03A
:105200000E94F2251092E10D1092E20D1092E30D32
:105210001092E40D0E94DEAE6093E50D7093E60DF2
:105220008093E70D9093E80D0E948E28682F88E602
:1052300090E069830E9487BC6981681721F088E645
:1052400090E00E94A5BC0F90DF91CF91FF90EF906E
:10525000DF90CF900C9493130F90DF91CF91FF903C
:10526000EF90DF90CF900895CF93C82F4091C9025F
:105270005091CA026091CB027091CC028BE490E015
:105280000E94B3BC4091CA0D5091CB0D6091CC0DE2
:105290007091CD0D8FE490E00E94B3BC4091CD029F
:1052A0005091CE026091CF027091D00283E590E0E0
:1052B0000E94B3BC40910F03509110036091110301
:1052C0007091120383E090E00E94F2254091130355
:1052D00050911403609115037091160387E090E0DC
:1052E0000E94F22540911703509118036091190311
:1052F00070911A038BE090E00E94F2254091FF022A
:105300005091000360910103709102038FE090E0DF
:105310000E94F2254091030350910403609105031C
:105320007091060383E190E00E94F225409107030B
:10533000509108036091090370910A0387E190E09E
:105340000E94F2254091F3025091F4026091F5021F
:105350007091F6028BE190E00E94F2254091F702F5
:105360005091F8026091F9027091FA028FE190E099
:105370000E94F2254091FB025091FC026091FD02D7
:105380007091FE0283E290E00E94F2254091F30DBD
:105390005091F40D6091F50D7091F60D87E290E05B
:1053A0000E94F2256091E3027091E4028091E5028F
:1053B0009091E6020E94C2B9AB01BC0183E390E088
:1053C0000E94F2256091E7027091E8028091E90263
:1053D0009091EA020E94C2B9AB01BC0187E390E060
:1053E0000E94F2256091EB027091EC028091ED0237
:1053F0009091EE020E94C2B9AB01BC018BE390E038
:105400000E94F2256091D3027091D4028091D5025E
:105410009091D6020E94C2B9AB01BC018FE390E02B
:105420000E94F2256091D7027091D8028091D90232
:105430009091DA020E94C2B9AB01BC0183E490E012
:105440000E94F2256091DB027091DC028091DD0206
:105450009091DE020E94C2B9AB01BC0187E490E0EA
:105460000E94F225609121028AE690E00E94A5BC8C
:10547000609126028BE690E00E94A5BC6091270215
:105480008CE790E00E94A5BC40912802509129022F
:1054900060912A0270912B028CE690E00E94F22526
:1054A00040912C0250912D0260912E0270912F029A
:1054B00080E790E00E94F225409130025091310245
:1054C000609132027091330284E790E00E94F225ED
:1054D0006091340288E790E00E94A5BC40910F0ED5
:1054E0005091100E6091110E7091120E85E890E0AF
:1054F0000E94F2254091070E5091080E6091090E0E
:1055000070910A0E89E890E00E94F2254091FF0D0B
:105510005091000E6091010E7091020E8DE890E0A6
:105520000E94F2254091130E5091140E6091150EB9
:105530007091160E81E990E00E94F22540910B0EC9
:1055400050910C0E60910D0E70910E0E85E990E059
:105550000E94F2254091030E5091040E6091050EB9
:105560007091060E89E990E00E94F22540E050E03B
:10557000BA018DE990E00E94F22540E050E0BA01C6
:1055800081EA90E00E94F22540E050E0BA0185EA0D
:1055900090E00E94F225A895409157025091580240
:1055A0006091590270915A0288EC90E00E94F225B5
:1055B00040915D0250915E0260915F0270916002C5
:1055C0008CEC90E00E94F2254091650250916602B9
:1055D000609167027091680280ED90E00E94F22570
:1055E0004091610250916202609163027091640285
:1055F00084ED90E00E94F2256091900288ED90E0A9
:105600000E94A5BC6091950289ED90E00E94A5BC26
:105610006091960285EF90E00E94A5BC40919702B0
:10562000509198026091990270919A028AED90E0EF
:105630000E94F22540919B0250919C0260919D0234
:1056400070919E028EED90E00E94F22540919F02A3
:105650005091A0026091A1027091A20282EE90E0AE
:105660000E94F2256091A30286EE90E00E94A5BC04
:1056700040914F025091500260915102709152023C
:1056800087EE90E00E94B3BC4091530250915402C7
:1056900060915502709156028BEE90E00E94B3BC6F
:1056A00060916D0270916E028FEE90E00E94BBBC23
:1056B00060916F02709170028AEF90E00E94BBBC13
:1056C00060917102709172028CEF90E00E94BBBCFD
:1056D0006091C1028EEF90E00E94A5BC40917302E0
:1056E00050917402609175027091760281EF90E0A2
:1056F0000E94F225409177025091780260917902E0
:1057000070917A0286EF90E00E94F225CC2381F01E
:1057100040E050E0BA018DE790E00E94B3BC40E069
:1057200050E0BA0181E890E00E94F2250E9426260E
:1057300064E089E690E00E94A5BC0E948E28682F54
:1057400088E690E0CF910C94A5BCCF9389E690E0D9
:105750000E9487BCC82F8BE490E00E948FBC6093AE
:10576000C9027093CA028093CB029093CC028FE45B
:1057700090E00E948FBC6093CA0D7093CB0D809314
:10578000CC0D9093CD0D83E590E00E948FBC60938B
:10579000CD027093CE028093CF029093D00283E02B
:1057A00090E00E940A2660930F0370931003809389
:1057B00011039093120387E090E00E940A26609301
:1057C00013037093140380931503909316038BE0D7
:1057D00090E00E940A266093170370931803809349
:1057E000190390931A038FE090E00E940A266093B9
:1057F000FF0270930003809301039093020383E1FF
:1058000090E00E940A266093030370930403809340
:1058100005039093060387E190E00E940A266093B7
:105820000703709308038093090390930A038BE1A5
:1058300090E00E940A266093F3027093F402809332
:10584000F5029093F6028FE190E00E940A266093A1
:10585000F7027093F8028093F9029093FA0283E2C0
:1058600090E00E940A266093FB027093FC028093F2
:10587000FD029093FE0287E290E00E940A26609368
:10588000F30D7093F40D8093F50D9093F60D83E373
:1058900090E00E940A260E948FB96093E302709301
:1058A000E4028093E5029093E60287E390E00E9491
:1058B0000A260E948FB96093E7027093E8028093F2
:1058C000E9029093EA028BE390E00E940A260E948C
:1058D0008FB96093EB027093EC028093ED0290938A
:1058E000EE028FE390E00E940A260E948FB9609337
:1058F000D3027093D4028093D5029093D60283E4AE
:1059000090E00E940A260E948FB96093D70270939C
:10591000D8028093D9029093DA0287E490E00E9443
:105920000A260E948FB96093DB027093DC02809399
:10593000DD029093DE028AE690E00E9487BC8093AD
:1059400021028BE690E00E9487BC809326028CE7C0
:1059500090E00E9487BC809327028CE690E00E9432
:105960000A26609328027093290280932A0290935A
:105970002B0280E790E00E940A2660932C0270932D
:105980002D0280932E0290932F0284E790E00E94D4
:105990000A26609330027093310280933202909312
:1059A000330288E790E00E9487BC8093340285E848
:1059B00090E00E940A2660930F0E7093100E809361
:1059C000110E9093120E89E890E00E940A266093CF
:1059D000070E7093080E8093090E90930A0E8DE8BF
:1059E00090E00E940A266093FF0D7093000E809352
:1059F000010E9093020E81E990E00E940A266093C6
:105A0000130E7093140E8093150E9093160E85E965
:105A100090E00E940A2660930B0E70930C0E809308
:105A20000D0E90930E0E89E990E00E940A26609375
:105A3000030E7093040E8093050E9093060EA895A6
:105A400088EC90E00E940A266093570270935802F7
:105A50008093590290935A028CEC90E00E940A269F
:105A600060935D0270935E0280935F029093600288
:105A700080ED90E00E940A266093650270936602B2
:105A8000809367029093680284ED90E00E940A265A
:105A90006093610270936202809363029093640248
:105AA00088ED90E00E9487BC8093900289ED90E0A1
:105AB0000E9487BC8093950285EF90E00E9487BC8E
:105AC000809396028AED90E00E940A2660939702E6
:105AD000709398028093990290939A028EED90E0D1
