:100000000C940C120C943D120C943D120C943D1265
:100010000C943D120C943D120C943D120C943D1224
:100020000C943D120C943D120C943D120C943D1214
:100030000C943D120C9467B40C943D120C943D1238
:100040000C943D120C943A470C943D120C943D12C2
:100050000C943D120C94D4480C94D7470C9419AFCF
:100060000C943D120C9431490C945B490C943D1254
:100070000C943D120C943D120C943D120C943D12C4
:100080000C943D120C943D120C943D120C943D12B4
:100090000C943D120C943D120C943D120C943D12A4
:1000A0000C943D120C943D120C943D120C943D1294
:1000B0000C943D120C943D120C943D120C943D1284
:1000C0000C943D120C943D120C943D120C943D1274
:1000D0000C943D120C943D120C943D120C943D1264
:1000E0000C943D12B79CBE9CE89C719DB7A6B7A628
:1000F000B7A6B7A6B7A6B7A6B7A6B7A6B7A6019DD7
:100100002E9D459DB7A6B7A6B7A6B7A6B7A6B7A614
:10011000B7A6B7A6B7A6B7A6B7A68E9ECA9E039FD8
:100120003D9F779FB19FEB9FB7A618A33FA08DA0DF
:10013000DBA029A177A1C5A113A26AA2C1A2B7A67B
:10014000B7A6B7A6B7A6B7A6F19D2C9E5D9E67A3DE
:10015000B0A3FAA348A44FA462A492A4C3A404A584
:1001600045A584A5C7A5DAA556A429A6B7A6B7A60E
:10017000B7A6B7A6B7A6B7A6B7A6B7A6B7A6B7A697
:10018000B7A6939DC19DB7A6B7A6B7A6B7A6B7A6B3
:10019000B7A6B7A6B7A671A6B7A6099EB7A6B7A673
:1001A000B7A6F4A50FA6084AD73B3BCE016E84BC88
:1001B000BFFDC12F3D6C74319ABD56833DDA3D00C1
:1001C000C77F11BED9E4BB4C3E916BAAAABE00000A
:1001D00000803F05A84CCDB2D44EB93836A9020CE8
:1001E00050B9918688083CA6AAAA2ABE00000080C1
:1001F0003F00000100250030001D000C0018002405
:100200000031001C000B00170023002F001B000A08
:10021000001E000D0004000900FFFF080022002B53
:10022000001A0041004200000001003500486561ED
:1002300074696E67204578747275646572004865EC
:100240006174696E672042656400536574204D696E
:1002500063726F7374657070696E67004372656175
:1002600074696F6E206661696C65640044697265CB
:1002700063746F72792063726561746564004465AC
:100280006C6574696F6E206661696C6564004669AF
:100290006C652064656C6574656400446F6E6520F0
:1002A000736176696E672066696C652E00577269A6
:1002B00074696E6720746F2066696C653A20006F00
:1002C00070656E206661696C65642C2046696C659A
:1002D0003A20004E6F74205344207072696E746926
:1002E0006E67005344207072696E74696E67206295
:1002F000797465200066696C652E6F70656E206686
:1003000061696C65640046696C652073656C656342
:10031000746564002053697A653A0046696C65200B
:100320006F70656E65643A00456E642066696C6541
:10033000206C69737400426567696E2066696C653C
:10034000206C697374006572726F722077726974C1
:10035000696E6720746F2066696C6500534420697C
:100360006E6974206661696C005344204361726455
:1003700020696E7365727465640053442043617232
:10038000642072656D6F76656400616476616E638A
:1003900065204C205B303D6F66665D006164766170
:1003A0006E6365204B205B303D6F66665D0065784F
:1003B00074727564657220636F6F6C657220737000
:1003C000656564205B302D3235355D00646973747A
:1003D000616E636520746F2072657472616374204E
:1003E0007768656E2068656174696E67205B6D6D06
:1003F0005D0074656D702E20666F72207265747278
:10040000616374696F6E207768656E2068656174DA
:10041000696E67205B435D0074656D702E20737498
:100420006162696C697A652074696D65205B735DD2
:1004300000592D6F6666736574205B737465707305
:100440005D00582D6F6666736574205B737465700C
:10045000735D00504944206D61782076616C75654C
:10046000205B302D3235355D0050494420442D67E6
:1004700061696E0050494420492D6761696E0050E2
:10048000494420502D6761696E2F646561642D7445
:10049000696D6500504944206472697665206D6914
:1004A0006E00504944206472697665206D61780061
:1004B00068656174206D616E61676572205B302DC7
:1004C000335D00616363656C65726174696F6E2092
:1004D0005B6D6D2F735E325D0073746172742066A4
:1004E00065656472617465205B6D6D2F735D006D71
:1004F00061782E206665656472617465205B6D6D40
:100500002F735D00737465707320706572206D6D5C
:100510000042656420504944206D61782076616C0A
:100520007565205B302D3235355D004265642050A5
:10053000494420442D6761696E004265642050493A
:100540004420492D6761696E00426564205049442A
:1005500020502D6761696E00426564205049442037
:100560006472697665206D696E0042656420504949
:1005700044206472697665206D617800426564206C
:1005800048656174204D616E61676572205B302D36
:10059000335D00546F776572205A20656E64737402
:1005A0006F70206F6666736574205B73746570731B
:1005B0005D00546F776572205920656E6473746FA7
:1005C00070206F6666736574205B73746570735D0D
:1005D00000546F776572205820656E6473746F7075
:1005E000206F6666736574205B73746570735D005D
:1005F0005365676D656E74732F7320666F72207418
:10060000726176656C005365676D656E74732F73E8
:1006100020666F72207072696E74696E6700486F31
:1006200072697A6F6E74616C20726164697573208F
:100630005B6D6D5D00446961676F6E616C20726F08
:1006400064206C656E677468205B6D6D5D00486F3B
:100650006D696E67206665656472617465205B6DA7
:100660006D2F735D004D61782E2066656564726143
:100670007465205B6D6D2F735D005374657073201E
:10068000706572206D6D0054726176656C206163D7
:1006900063656C65726174696F6E205B6D6D2F733D
:1006A0005E325D00416363656C65726174696F6E93
:1006B000205B6D6D2F735E325D004D61782E206A78
:1006C00065726B205B6D6D2F735D005A206D6178D4
:1006D000206C656E677468205B6D6D5D0059206DE0
:1006E0006178206C656E677468205B6D6D5D005885
:1006F000206D6178206C656E677468205B6D6D5D40
:10070000005A20686F6D6520706F73205B6D6D5DA2
:10071000005920686F6D6520706F73205B6D6D5D93
:10072000005820686F6D6520706F73205B6D6D5D84
:100730000053746F70207374657070657220616609
:1007400074657220696E6163746976697479205B7F
:100750006D732C303D6F66665D004D61782E2069AB
:100760006E6163746976652074696D65205B6D7375
:100770002C303D6F66665D005072696E7465722044
:10078000616374697665205B735D0046696C616DB9
:10079000656E74207072696E746564205B6D5D00B7
:1007A0004261756472617465004550523A332000AD
:1007B0004550523A3220004550523A3120004550BF
:1007C000523A302000457874722E0050726F746F68
:1007D000636F6C2076657273696F6E206368616EFB
:1007E0006765642C20757067726164696E67004389
:1007F0006F6E66696775726174696F6E207265737A
:10080000657420746F2064656661756C74732E0066
:10081000436F6E66696775726174696F6E206C6F85
:10082000616465642066726F6D20454550524F4D7E
:100830002E00436F6E66696775726174696F6E2012
:1008400073746F72656420746F20454550524F4D2C
:100850002E004D65617375726564206F72696769FA
:100860006E207365742E204D6561737572656D65BC
:100870006E742072657365742E004D6561737572B8
:10088000656D656E742072657365742E004D6561CB
:10089000737572652F64656C7461203D00436F6EE3
:1008A0007374616E742066756C6C2073706565641A
:1008B000206D6F76652074696D653A00436F6D6DCC
:1008C000616E6465642066656564726174653A0092
:1008D0004D6F76652064697374616E6365206F6E19
:1008E000207468652058595A2073706163653A0016
:1008F0004C696D6974496E74657276616C3A006119
:100900006476616E6365526174653A006164766114
:100910006E636546756C6C3A0052656D61696E690F
:100920006E672073746570733A00416363656C652C
:10093000726174696F6E205072696D3A0041636331
:10094000656C65726174696F6E3A00764D61783AD4
:100950000066756C6C53706565643A004469723A60
:100960000044656C7461006A6F696E466C61677300
:100970003A00466C6167733A0073742E2F656E649B
:100980002073706565643A00616363656C2F64650C
:1009900063656C2073746570733A0076537461728A
:1009A000742F456E643A0049443A005072696E747F
:1009B00065722073657420696E746F20647279208B
:1009C00072756E206D6F646520756E74696C20722F
:1009D00065737461727421003A20776F726B696E6F
:1009E00067003A2074656D702073656E736F7220B6
:1009F00064656665637400657874727564657220F9
:100A00000068656174656420626564004D54454DFD
:100A1000503A00504944204175746F74756E6520DA
:100A200066696E6973686564202120506C61636536
:100A300020746865204B702C204B6920616E642007
:100A40004B6420636F6E7374616E747320696E20E3
:100A500074686520436F6E66696775726174696F4B
:100A60006E2E68206F7220454550524F4D00504900
:100A700044204175746F74756E65206661696C659C
:100A800064212074696D656F75740050494420417C
:100A900075746F74756E65206661696C656421207C
:100AA00054656D706572617475726520746F20682D
:100AB00069676800204B643A2000204B693A2000A7
:100AC000204B703A200020436C617373696320509F
:100AD0004944002054753A2000204B753A200020EC
:100AE0006D61783A2000206D696E3A200020643AEA
:100AF000200020626961733A20005049442041750A
:100B0000746F74756E6520737461727400546172D1
:100B10006765744265643A0054617267657445782C
:100B20007472004E6F206D6F766520696E2064656B
:100B30006C7461207365676D656E74207769746885
:100B4000203E2031207365676D656E742E205468D9
:100B500069732073686F756C64206E6576657220AA
:100B600068617070656E20616E64206D61792063CC
:100B70006175736520612070726F626C656D210014
:100B8000496E76616C69642064656C746120636F82
:100B90006F7264696E617465202D206D6F766520BB
:100BA00069676E6F72656400454550524F4D207500
:100BB000706461746564004F726967696E206D6569
:100BC00061737572656D656E742063616E6E6F74AE
:100BD000206265207365742E2020557365206F6E2A
:100BE0006C79205A2D43617274657369616E202897
:100BF000737472616967687420757020616E642017
:100C0000646F776E29206D6F76656D656E747320E5
:100C1000616E642074727920616761696E2E004D87
:100C200065617375726564206F726967696E2073A0
:100C300065742E204D6561737572656D656E7420E7
:100C400072657365742E004D6561737572652F64EE
:100C5000656C7461203D004D6561737572652F642C
:100C6000656C74612028537465707329203D004DB4
:100C70006561737572656D656E74207265736574F8
:100C80002E0020717561647261746963204B3A00B3
:100C90006C696E656172204C3A002C20737065653A
:100CA000643D0020717561647261746963207374BE
:100CB0006570733A00206C696E65617220737465AB
:100CC00070733A004A65726B3A007A5F6D61783AE8
:100CD00000795F6D61783A00785F6D61783A004C19
:100CE000200048200020746F2000536574206F7529
:100CF0007470757420004D53312C4D53322050695F
:100D00006E730045313A0045303A005A3A00593A7C
:100D10000020002C00496E76616C6964206172636A
:100D200000206D696E0020686F757273200020646A
:100D300061797320006D20005072696E74696E676E
:100D40002074696D653A005072696E74656420663E
:100D5000696C616D656E743A0046616E73706565AD
:100D6000643A00466C6F774D756C7469706C793AB3
:100D70000053706565644D756C7469706C793A00E8
:100D80002F003A0020403A0020423A00543A002016
:100D9000453A00205A3A0020593A00583A00467223
:100DA00065652052414D3A00556E6B6E6F776E202F
:100DB000636F6D6D616E643A00536F667477617234
:100DC00065205265736574005761746368646F676A
:100DD0002052657365740042726F776E206F757470
:100DE0002052657365740045787465726E616C207D
:100DF000526573657400506F776572557000737437
:100E000061727400424C4B2000736B6970200020AB
:100E1000676F7420004572726F723A65787065630F
:100E2000746564206C696E652000534420726561AE
:100E300064206572726F7200205200204A002049BF
:100E400000205000205300204600204500205A007A
:100E5000205900205800446F6E65207072696E74CE
:100E6000696E672066696C650057726F6E672063F4
:100E70006865636B73756D006F6B20004563686F09
:100E80003A00526573656E643A005761726E696E1E
:100E9000673A00496E666F3A004572726F723A00A7
:100EA000494E46004E414E006F6B004465627567C7
:100EB0003A004649524D574152455F4E414D453AE1
:100EC00052657065746965725F302E393062657481
:100ED00061204649524D574152455F55524C3A6840
:100EE000747470733A2F2F6769746875622E636F1C
:100EF0006D2F72657065746965722F5265706574C7
:100F00006965722D4669726D776172652F20505246
:100F10004F544F434F4C5F56455253494F4E3A3111
:100F20002E30204D414348494E455F545950453A73
:100F300044656C74612045585452554445525F4392
:100F40004F554E543A312052455045544945525F11
:100F500050524F544F434F4C3A320000021C151C64
:100F6000141C00002243141F1F920F02105610C6BB
:100F70001016110000000086110E121A136A13E6F3
:100F8000134D3131372045787472756465722031A4
:100F900000000000A00F5C006009690010097900E2
:100FA000C0088C007008A2002008BD00D007DE0039
:100FB0008007050130073401E0066D019006B2019B
:100FC00040060702F0056D02A005E80250057B030C
:100FD00000052B04B004F8046004EB06C0033509D7
:100FE00020037F0B8002650DE001B00E40011D0F54
:100FF000F000480FC8006C0FA000ED0F60FFFE0F5F
:1010000048FE0400801AD8009808AC01200780022E
:1010100050065403C80528045805FC040005D005F3
:10102000B004A4066804780728044C08E8032009E3
:10103000B003F4097003C80A38039C0BF802700C63
:10104000B002440D6802180E0802EC0E8801C00FB1
:101050008800F00F00000400001B540060096400C9
:1010600010097400C008840070089C002008B800B3
:10107000D007D8008007000130072C01E006680186
:101080009006AC0140060002F0056802A005E002EF
:101090005005740300052404B004F0046004DC056A
:1010A0001004E406C0030408700330092003780B21
:1010B0008002600DE001A80E4001680FA000C00F83
:1010C0000000E80F60FF0400700DD8004804AC0178
:1010D00058038002D8025403800228043802FC041A
:1010E0000002D005C801A4069801780770014C08D9
:1010F000480120091801F409F000C80AC8009C0B37
:10110000A000700C7000440D3800180E0000EC0EAA
:10111000A8FFC00FE8FE0400001B54006009640033
:1011200010097400C008840070089C002008B800F2
:10113000D007D8008007000130072C01E0066801C5
:101140009006AC0140060002F0056802A005E0022E
:101150005005740300052404B004F0046004DC05A9
:101160001004E406C0030408700330092003780B60
:101170008002600DE001A80E4001680FA000C00FC2
:101180000000E80F60FF0000401F450060094F00AD
:1011900010095C00C0086B0070087D0020089200F8
:1011A000D007AC008007CC003007DE00E00623014A
:1011B00090065E014006A601F005FF01A0056D0244
:1011C0005005F30200059603B0045A04600440057C
:1011D00010044806C0036E077003A8082003EB093B
:1011E000D002230B8002410C3002390DE001040EC5
:1011F0009001A20E4001170FF000690FA000A20F8E
:101200005000C60F0000DD0FB0FFEB0F60FF0400C1
:10121000681D4C00500B94005809DC005008240154
:10122000A8076C012807B401C006FC01700644023F
:1012300028068C02F005D402B8051C038805640357
:101240005805AC033005F40310053C04E80484049D
:10125000C804CC04A804140590045C057004A4051B
:101260005804EC053804340620047C060804C4063F
:10127000F0030C07D8035407C8039C07B003E40726
:1012800098032C08800374087003BC0858030409F1
:1012900048034C09300394091803DC090803240AA5
:1012A000F0026C0AE002B40AC802FC0AB002440B65
:1012B000A0028C0B8802D40B70021C0C5802640C28
:1012C0004002AC0C2802F40C10023C0DF001840D1D
:1012D000D801CC0DB801140E98015C0E7001A40E5B
:1012E0004801EC0E1801340FD8007C0F8800C40FA1
:1012F0000800FC0F000000000000000000000000DB
:1013000000000000000000000000000000000000DD
:101310000000000000000000000004000016D800DB
:10132000C006AC0178058002C004540348042804B8
:10133000E803FC049803D0055003A40618037807BB
:10134000D8024C08A80220097002F4093802C80A21
:1013500008029C0BD001700C9001440D5001180E36
:10136000F800EC0E8800C00F00000400401D900043
:1013700060091C01B007A801D00634023806C0027B
:10138000C8054C036805D80318056404D804F004A4
:1013900098047C05600408063004940600042007C5
:1013A000D003AC07A80338088003C40858035009C9
:1013B0003003DC090803680AE002F40AB802800B73
:1013C00088020C0C6002980C3002240DF801B00D5C
:1013D000C0013C0E8001C80E3001540FB800B40F9C
:1013E0002800E00F00000400081D900058091C01AF
:1013F000B007A801C80634023006C002C0054C037D
:101400006805D80318056404D004F00498047C052A
:10141000600408063004940600042007D003AC07DB
:10142000A80338088003C408580350093003DC09B6
:101430000803680AD802F40AB002800B88020C0C78
:101440006002980C3002240DF801B00DC0013C0E72
:101450008001C80E3001540FB800B40F2800E00F0F
:1014600000004572726F723A42696E617279206350
:101470006D642077726F6E6720636865636B737548
:101480006D2E00000020A190D00A8B48E8A0868530
:1014900045041724F403D950C38EB1C2A23D9682ED
:1014A0008B3582127AE372816CCB66A861015DC7CD
:1014B00058EB546151204E1E4B5648C14559431AB2
:1014C00041013F093D2F3B7139CD374036C9346565
:1014D000331432D430A32F802E6B2D632C672B75E1
:1014E0002A8E29B028DC2710274B268F25D9242BBC
:1014F000248223E0224322AC211A218D2004208063
:101500001F001F841E0C1E971D261DB81C4E1CE6B6
:101510001B821B201BC11A641A0A1AB2195D190A10
:1015200019B9186A181C18D11788174017FA16B578
:101530001673163116F115B31576153A150015C741
:10154000148F1458142214EE13BA1388135613254B
:1015500013F612C71299126C1240121512EB11C138
:10156000119811701148112111FB10D610B1108D76
:10157000106910461024100210E10FC00FA00F8058
:101580000F610F420F230F060FE80ECB0EAF0E9325
:101590000E770E5C0E410E270E0D0EF30DDA0DC107
:1015A0000DA80D900D780D600D490D320D1B0D0528
:1015B0000DEF0CD90CC30CAE0C990C850C700C5CA7
:1015C0000C480C350C210C0E0CFB0BE80BD60BC495
:1015D0000BB20BA00B8E0B7D0B6B0B5A0B4A0B390E
:1015E0000B290B180B080BF80AE90AD90ACA0ABB1F
:1015F0000AAC0A9D0A8E0A800A710A630A550A47D4
:101600000A390A2C0A1E0A110A040AF709EA09DD36
:1016100009D009C409B709AB099F09920987097B59
:10162000096F09630958094C09410936092B09203A
:101630000915090A090009F508EB08E008D608CCE5
:1016400008C208B808AE08A4089A08900887087D60
:101650000874086B08610858084F0846083D0834AC
:10166000082C0823081A08120809080108F807F0CE
:1016700007E807E007D807D007C807C007B807B0D2
:1016800007A807A1070000420FA1071605D0030D08
:10169000038B022E02E801B2018601630145012C91
:1016A0000117010401F40049646C65004B696C6C1E
:1016B000656400537465707065722044697361627B
:1016C0006C6564005072696E74696E6700486F6D76
:1016D000652044656C74610053442043617264204A
:1016E00072656D6F766564005344204361726420B7
:1016F000696E7365727465640055706C6F616469BE
:101700006E672E2E2E007C3C3E5E2B3D3F2F5B5D98
:101710003B2C2A225C000000FF00000000010100B9
:10172000000000FF0000040E15041C000000040A65
:10173000040000000000001F1F1F1F1F0000001FEB
:101740001111111F0000040A0A0A0E1F1F0E001CAF
:101750001F11111F00005072696E7465722072654E
:101760006164792E00526570657469657220302E4F
:101770003930626574610044656C746120546F7720
:10178000657200004014540000003FCDCC4C3D0A6F
:10179000D7A33B6F12033A4F6E004F666600596540
:1017A00073004E6F00646566005072696E74696EF6
:1017B000672E2E2E000300040042616E6742616EA8
:1017C0006700504944004E2F410020646179732026
:1017D000003A0000C618CD18D418DB180200000823
:1017E00000E2188025000040380000004B00008017
:1017F00070000000960000C0DA000000E100000068
:101800002C010008B2010000C2010000F401000038
:1018100084030090D0030000E803000000000003F0
:10182000FC030400F218416374696F6E3A256C6121
:10183000005072656865617420504C4100507265BB
:10184000686561742041425300436F6F6C646F7729
:101850006E000310270200FA180310270200FE187A
:10186000010000010002194E6F20534420436172B1
:101870006400031027020004190200000700081981
:1018800003ED030400161903EE0304001E1903EF11
:10189000030400261903FA0304002E1903FB0304B2
:1018A0000036190200000A003E190200000600522C
:1018B0001902000009005E19526571756573745054
:1018C000617573653A0000000004007019000000A3
:1018D00004007819000000040080190000000400D2
:1018E0008819901995199A199F19A419A919AE194F
:1018F000B319B819BD19C219C719CC19D119D619FC
:10190000DB199019E019E5199019EA19EF19F41982
:10191000F919FE19031A081A0D1A121A171A1C1AA5
:10192000211A261A2B1A301A351A3A1A3F1A441A53
:10193000491A4E1A531A581A5D1A621A671A9019E0
:101940006C1A711A761A7B1A801A851A8A1A8F1ADB
:10195000941A9019991A9E1AA31AA81AAD1A9019D6
:101960006C1AB21AB71ABC1AC11AC61ACB1AA81A1C
:10197000D01AD51ADA1ADF1AE41AE91AEE1AF31A8B
:10198000F81AFD1A021B071B0C1B111B161B1B1B35
:10199000201B03E803271B02A318361B02B1183FC4
:1019A0001B02AA18481B02521B591B027918611B03
:1019B000026B1B721B02801B871B000000901B0028
:1019C0000000A01B000000B01B000000B11B0000C5
:1019D00000BF1B000000D01B000000DE1B00000049
:1019E000EF1B000000FF1B000000031C03F5030EAB
:1019F0001C03F6031A1C03F703291C03F803361C07
:101A000003F903411C03F4034D1C000000561C00A5
:101A10000000661C000000761C000000771C00001F
:101A200000801C000000901C000000A01C000000B2
:101A3000A11C000000AA1C000000BA1C000000CA83
:101A40001C000000CB1C000000D41C000000E41CA3
:101A5000000000F41C000000F51C000000FE1C004B
:101A600000000E1D0000001E1D0000001F1D03FDD4
:101A700003281D033704341D034704401D041F04BD
:101A8000521D044804641D0338046D1D0331047B9A
:101A90001D0342048B1D035104971D043C04A71D24
:101AA000043D04B71D033A04C61D02D51DDC1D0309
:101AB0004304E71D029518F31D028018FE1D029CC9
:101AC000180A1E028718151E021F18211E028E18E2
:101AD0002C1E0000003F1E000000451E00000055A7
:101AE0001E000000591E000000621E0000006B1E58
:101AF000000000741E000000781E000000891E0017
:101B000000008A1E0000009A1E0000009E1E0000B9
:101B100000AC1E000000B01E000000C11E0000004E
:101B20004261636B200100517569636B20536574DA
:101B300074696E677300506F736974696F6E0045E6
:101B4000787472756465720046616E2073706565A5
:101B500064000200000600C71E5344204361726403
:101B600000446562756767696E67000200000500E2
:101B7000D31E436F6E66696775726174696F6E001C
:101B80000200000800DD1E5A3A257832206D6D00F3
:101B90004D696E20656E6473746F703A25737A00B8
:101BA0004D617820656E6473746F703A25735A00C6
:101BB00000436F6E66696775726174696F6E00735A
:101BC000746F72656420696E20454550524F4D0018
:101BD000436F6E66696775726174696F6E006C6FD2
:101BE0006164656420662E20454550524F4D002AA1
:101BF0002A2A2A204552524F52202A2A2A2A0025D0
:101C00006F65005072696E742066696C6500506182
:101C1000757365205072696E7400436F6E74696EDF
:101C20007565205072696E7400556E6D6F756E74B7
:101C30002043617264004D6F756E7420436172645D
:101C40000044656C6574652066696C6500583A25CA
:101C50007830206D6D004D696E20656E6473746F11
:101C6000703A257378004D617820656E6473746FE7
:101C7000703A2573580000593A257831206D6D006F
:101C80004D696E20656E6473746F703A25737900C8
:101C90004D617820656E6473746F703A25735900D6
:101CA000005A3A257832206D6D004D696E20656EC0
:101CB0006473746F703A25737A004D617820656E95
:101CC0006473746F703A25735A0000583A2578305F
:101CD000206D6D004D696E20656E6473746F703A8F
:101CE000257378004D617820656E6473746F703A67
:101CF0002573580000593A257831206D6D004D69E3
:101D00006E20656E6473746F703A257379004D614F
:101D10007820656E6473746F703A257359000048BB
:101D20006F6D6520416C6C00507265686561742050
:101D3000504C410050726568656174204142530007
:101D40005370656564204D756C2E3A256F6D2525A1
:101D50002500466C6F77204D756C2E203A256F66F6
:101D600025252500436F6F6C646F776E0053657493
:101D700020746F204F726967696E004469736162F5
:101D80006C65207374657070657200577269746554
:101D9000204465627567004265642054656D702E4D
:101DA0003A25456202430054656D702E2030202094
:101DB0003A25453002430045787472756465722097
:101DC00030204F666600457874722E20706F7369FC
:101DD00074696F6E0003F0030200ED1E53657420FA
:101DE0004F726967696E005820506F732E204661EC
:101DF0007374005820506F736974696F6E005920B6
:101E0000506F732E2046617374005920506F7369B0
:101E100074696F6E005A20506F732E204661737480
:101E2000005A20506F736974696F6E0005256563F1
:101E30002F25456302422565422F25456202005A3F
:101E40003A257832004D756C3A256F6D20427566E3
:101E50003A256F4200256F7300583A257830206D7F
:101E60006D00593A257831206D6D005A3A25783247
:101E7000206D6D00256F730045313A2565302F25A3
:101E8000453002437E256F300000423A2565622FBF
:101E900025456202437E256F6200256F73005072F4
:101EA000696E74696E672074696D650025557400EC
:101EB00046696C616D656E74207072696E746564DC
:101EC00000255566206D009019F11EF61EFB1E00C0
:101ED0001F051F90190A1F0F1F141F191F90191E8D
:101EE0001F231F281F2D1F321F371F3C1F411F4656
:101EF0001F4B1F031A04581F031B04661F031C04F7
:101F0000741F031D04821F031E048F1F0332049BD2
:101F10001F033304A71F033404B31F033504BF1F7B
:101F200002C71FCE1F02DB1FE21F02EB1FF21F02C0
:101F3000FB1F022003060412200307042120022EA7
:101F40002035200000003E200000005475726E20F5
:101F500046616E204F6666005365742046616E20B0
:101F60003235252525005365742046616E203530B5
:101F7000252525005365742046616E2037352525BB
:101F800025005365742046616E2046756C6C0045D3
:101F900063686F2020203A25646F00496E666F20C9
:101FA00020203A256469004572726F7273203A25C9
:101FB0006465004472792072756E3A256464004746
:101FC000656E6572616C0002000004004D20416383
:101FD00063656C65726174696F6E000200000400D5
:101FE0005520466565647261746500020000030057
:101FF0005D204578747275646572000200001100FE
:10200000632053746F726520746F20454550524FA2
:102010004D004C6F616420662E20454550524F4D57
:102020000044656C74612043616C69622E0002009B
:102030000007008520453A257833206D6D0031205A
:10204000636C69636B203D2031206D6D00901993A6
:102050002098209D209019A220A720AC209019B193
:1020600020B6209019BB20C020C520CA20CF20D484
:1020700020D920DE20E320E820ED20F220F720FC0C
:10208000200121062190190B21102115216C1ACB5A
:102090001AC61A1A2104100427210238213F2102EE
:1020A0004D215421040A045E21040D046721040E0D
:1020B0000473210416047B210413048421042904DD
:1020C0009121042C049E21042B04A921042A04B389
:1020D00021042E04C121044D04D421044C04E52123
:1020E000044604F5210430040622042D04122204BF
:1020F00022041C2204230426220424043022042562
:10210000043E220426044C22042F04582203AA0F62
:10211000632203AB0F6F2203AC0F426175647261DF
:1021200074653A256F630053746570706572204959
:102130006E61637469766500032004020080224D9D
:1021400061782E20496E616374697665000321040D
:10215000020084225072696E743A25617A004D6FD4
:1021600076653A25615A004A65726B2020203A252F
:10217000616A004D61783A25667A00486F6D653A6C
:1021800025665A0053746570732F4D4D3A2553657B
:102190000053746172742046523A255866004D61AE
:1021A000782046523A25584600416363656C3A25CB
:1021B000584100537461622E54696D653A25587711
:1021C000005761697420556E6974733A202558551B
:1021D000206D6D00576169742054656D702E202547
:1021E0005854024300416476616E6365206C696EE9
:1021F0003A25586C00416476616E636520717561A3
:10220000643A25586100436F6E74726F6C3A2558BA
:10221000680050494420503A2558700050494420E5
:10222000493A2558690050494420443A25586400E9
:102230004472697665204D696E3A25586D00447286
:10224000697665204D61783A25584D005049442003
:102250004D61783A2558440053686F77206D656169
:10226000732E005265736574206D6561732E005383
:102270006574206D6561732E206F726967696E00E9
:1022800088228D22922297229C22000000AB2200FD
:102290000000B522000000C4220000004469732E33
:1022A0002041667465723A256973005B735D203066
:1022B0003D4F6666004469732E2041667465723A2C
:1022C000256970005B735D20303D4F66660000003D
:1022D000090A02080B0C0D070603040100000000A8
:1022E00000000000000000000000000000000000EE
:1022F0000000000000000000000011100F000000AE
:1023000000000000000000000000000000000000CD
:1023100000000000010210202008081020401020BA
:102320004080020102010804020101020408102099
:102330004080804020100804020180040201804097
:102340002010080402010804020101020408102000
:10235000408001020408102040800505050507059E
:1023600008080808020202020A0A08080404040411
:10237000010101010101010103030303030303033D
:10238000040707070C0C0C0C0C0C0C0C02020202CC
:1023900006060606060606060B0B0B0B0B0B0B0BB5
:1023A00000002200250028002B002E003100340000
:1023B00002010000050108010B01000021002400BA
:1023C00027002A002D003000330001010000040125
:1023D00007010A0102494E46494E4954594E414EA1
:1023E000000020410000C84200401C4620BCBE4CFA
:1023F000CA1B0E5AAEC59D74CDCCCC3D0AD7233C2A
:1024000017B7D13877CC2B329595E6241FB14F0AF8
:102410000B4AE67C35AEEA7C11241FBECFEFD1E239
:10242000DEBFCDBF00E00CBF13E0A0E0B2E0E0E40F
:10243000FCE701E00BBF02C007900D92A034B1078A
:10244000D9F71BE1A0E4B3E001C01D92A03EB107A3
:10245000E1F714E2C6E1D4E200E006C022970109E8
:10246000FE010BBF0E940ABEC031D10780E0080701
:10247000A9F70E940CB10C9492B80C9400006DE086
:1024800080E394E00E944C456AE080E394E00C9481
:102490004C4520918318222331F023E333E34BECA6
:1024A00051E40E944ABC089580914D038823C1F0F5
:1024B00010924D030E94383B8091C402815080935A
:1024C000C402811109C08091C502833010F40E94BA
:1024D000BF3A85E08093C4028CE39BE10C94CEACC0
:1024E000089508C00E943F420E9454128CE39BE171
:1024F0000E94CDAC809128058111F4CF08958F9270
:102500009F92AF92BF92CF92DF92EF92FF92609133
:10251000820E7091830E8091840E9091850E809032
:10252000860E9090870EA090880EB090890EC09075
:102530008A0ED0908B0EE0908C0EF0908D0E209134
:102540008318222329F020E732E441E25DE304C04E
:1025500020E030E040E85FE30E944ABCAB01BC01F0
:1025600022E08BE99DE00E941B268091831888233E
:1025700029F020E732E441E25DE304C020E030E0EE
:1025800040E85FE3C501B4010E944ABCAB01BC0155
:1025900022E087E99DE00E941B2680918318882312
:1025A00029F020E732E441E25DE304C020E030E0BE
:1025B00040E85FE3C701B6010E944ABCAB01BC0121
:1025C00022E083E99DE00E941B2660919A0E7091A3
:1025D0009B0E80919C0E90919D0E0E9447BA209177
:1025E0007F183091801840918118509182180E9474
:1025F0004ABC20918318222329F020E732E441E2EB
:102600005DE304C020E030E040E85FE30E944ABCA4
:10261000AB01BC0122E08FE89DE0FF90EF90DF90DE
:10262000CF90BF90AF909F908F900C943626E09102
:102630004003F091410346A957A960AD71AD22E076
:102640008CE89DE00E941B260E94B833AB01BC01C0
:1026500022E088E89DE00E941B26E091C302EF3F44
:1026600029F4E0914003F0914103E081F0E0E2546D
:10267000F24F608170E084E89DE00E94BC240C94DD
:102680003F12CF92DF92EF92FF92CF93DF93EC0154
:10269000893191052CF0C53F81E0D80724F405C0AD
:1026A000C9E1D0E002C0C4EFD1E0BE01882777FDC8
:1026B0008095982F0E9447BA6B017C016091F90DBB
:1026C0007091FA0D882777FD8095982F0E9447BA60
:1026D0009B01AC01C701B6010E94ACB99B01AC01E2
:1026E0006091FB0D7091FC0D8091FD0D9091FE0DA0
:1026F0000E944ABC6093FB0D7093FC0D8093FD0D0E
:102700009093FE0DD093FA0DC093F90DBE0181E7B1
:102710009DE0DF91CF91FF90EF90DF90CF900C94F0
:10272000AC248931910524F0893C910524F405C03D
:1027300089E190E002C088EC90E09093F80D8093DE
:10274000F70DBC0183E69DE00C94AC24CF93DF939E
:10275000EC018F3F910519F014F0CFEFD0E0D7FFD7
:1027600002C0C0E0D0E061110E9471128091C10DE1
:1027700090E0C817D90729F0BE0189E59DE00E94C5
:10278000AC24C093C10DDF91CF9108954F925F9219
:102790006F927F928F929F92AF92BF92CF92DF9271
:1027A000EF92FF92CF93DF93CDB7DEB728970FB6A6
:1027B000F894DEBF0FBECDBF2FE632E143E85AE307
:1027C0006091E10D7091E20D8091E30D9091E40D27
:1027D0000E944ABC6B017C0144E050E061E870E07B
:1027E000CE0101960E94FCBC29813A814B815C811B
:1027F0006C2D7D2D8E2D9F2D0E94DFB8AB01BC016D
:1028000022E087E49DE00E941B2685E39DE00E9474
:10281000E223E0910A02F0910B0220E030E040E771
:1028200051E463857485858596850E94A8BB18163A
:102830000CF45AC020E030E0A9018DE790E02D8330
:102840003E834F8358870E9414BD4B015C012D814C
:102850003E814F815885820E931EA41EB51EC50170
:10286000B40120E831E541E050E00E94E8BD60E8B5
:102870007EEA8EEF9FEF0E948EBD6B017C01C80C3B
:10288000D91CEA1CFB1CBA01A90188E39DE00E9447
:10289000E624C701B60120E13EE040E050E00E949E
:1028A000E8BD49015A01BA01A9018EE29DE00E94EA
:1028B000E624A0EFB1EFA50194010E9489BD6C0D43
:1028C0007D1D8E1D9F1D2CE330E040E050E00E94F6
:1028D000E8BDBA01A90186E29DE00E94E62481E2FA
:1028E0009DE00E94F02315C00E9463AFC090E50DEB
:1028F000D090E60DE090E70DF090E80D6C197D09A1
:102900008E099F0928EE33E040E050E00E94C6BDEA
:1029100094CF28960FB6F894DEBF0FBECDBFDF91DF
:10292000CF91FF90EF90DF90CF90BF90AF909F90AE
:102930008F907F906F905F904F9008955F988EBDBD
:102940000DB407FEFDCF6EBD0DB407FEFDCF5F9A3F
:102950000895CF93DF9300D01F921F92CDB7DEB7BB
:1029600095E0E0E2F3E0DE01119601900D929A9578
:10297000E1F7E1E0F0E0EC0FFD1FE80FF11D8081D1
:1029800090E00F900F900F900F900F90DF91CF91EC
:102990000C949E14FF920F931F93CF93DF9300D05C
:1029A0001F921F92CDB7DEB785E0E5E2F3E0DE01CE
:1029B000119601900D928A95E1F7289A209A219A12
:1029C000229A80E58CBD81E08DBD579A8E010F5F04
:1029D0001F4FF12CF80161918F0170E08F2D0E9443
:1029E000A914F394F5E0FF12F5CF0F900F900F901C
:1029F0000F900F90DF91CF911F910F91FF9008954D
:102A000067FD3BC08230D9F028F4882341F0813043
:102A1000A1F50BC08330E9F0843079F524C066233A
:102A200011F0A19A5FC0A1985DC080910801662352
:102A300011F0806801C08F778093080159C08091A0
:102A40000801662311F0806401C08F7B8093080128
:102A500055C080910801662311F0886001C0877F0E
:102A60008093080142C080910801662311F08260C2
:102A700001C08D7F809308013EC047FD41C0823078
:102A8000B9F028F4882341F08130D1F50BC08330B0
:102A9000C9F08430A9F51EC0442311F0A09A08950E
:102AA000A0980895442311F0A29A0895A298089539
:102AB00080910801442311F0806201C08F7D8093D2
:102AC0000801089580910801442311F08061F7CF37
:102AD0008F7EF5CF80910801442311F08460EFCF01
:102AE0008B7FEDCF47FFD8CF089547FFEBCF0895F9
:102AF00047FFD8CF089547FFEDCF089547FFD8CFC0
:102B00000895643079F028F4613041F0623089F43E
:102B100007C0683051F0603161F407C040E003C085
:102B200040E004C041E060E002C041E061E00C949C
:102B300000150895CF93DF9386EF9CE00E94F02369
:102B400062B36695617070E08BE99DE00E94BC24E1
:102B500062B3617070E083E19DE00E94AC24C6E046
:102B6000D1E08881992787FD9095692F661F662798
:102B7000661F70E08EE09DE00E94BC2462B362FBA1
:102B8000662760F970E083E19DE00E94AC246881D3
:102B900066FB662760F970E08BE09DE00E94BC2434
:102BA000688165FB662760F970E083E19DE00E9423
:102BB000AC24688163FB662760F970E087E09DE0E4
:102BC0000E94BC2468816295617070E083E19DE0A1
:102BD0000E94AC2468816695617070E083E09DE09E
:102BE0000E94BC24688162FB662760F970E083E183
:102BF0009DE0DF91CF910C94AC24FF920F931F9333
:102C0000CF93DF9300D01F921F92CDB7DEB785E040
:102C1000EAE2F3E0DE01119601900D928A95E1F768
:102C2000989A9A9A80910701806280930701809117
:102C30000701806180930701809107018460809380
:102C400007018E010F5F1F4FF12CF80161918F0179
:102C50008F2D0E948115F394F5E0FF12F6CF0F90AF
:102C60000F900F900F900F90DF91CF911F910F91C8
:102C7000FF9008952F923F924F925F926F927F92B2
:102C80008F929F92AF92BF92CF92DF92EF92FF927C
:102C90000F931F93CF93DF93CDB7DEB7E0970FB6B7
:102CA000F894DEBF0FBECDBF1C012091D202DC0123
:102CB000CD90DC90119724FF0FC0C2FE02C00C948F
:102CC0003C23C1FE09C016968D919C9117978F36B3
:102CD000910511F00C943C23C2FECAC2F10180851B
:102CE00091858431910509F4FAC150F4843091053D
:102CF00018F4029738F51AC0049709F0ADC2B4C1B0
:102D00008A35910509F412C240F48531910509F420
:102D1000EAC14C9709F0A0C2E9C18B35910509F4CD
:102D200008C28C35910509F097C207C2C1010E9403
:102D30009972882309F490C241E061E081E00E9429
:102D40009C5E8AC28091820E9091830EA091840E27
:102D5000B091850E898B9A8BAB8BBC8B8091860E44
:102D60009091870EA091880EB091890E8D8B9E8BCD
:102D7000AF8BB88F80918A0E90918B0EA0918C0EA4
:102D8000B0918D0E898F9A8FAB8FBC8FC1010E943D
:102D90009972882309F460C2D10112961C9112978E
:102DA00010FF07C097966D917D918D919C919A9798
:102DB00003C060E070E0CB010E9449126B017C010E
:102DC0006D8F7E8F8F8F98A311FF06C0F10163A5D1
:102DD00074A585A596A503C060E070E0CB010E94B4
:102DE00049126DA37EA38FA398A769A37AA38BA38F
:102DF0009CA34090820E5090830E6090840E709041
:102E0000850E49825A826B827C828090860E9090D9
:102E1000870EA090880EB090890E8D829E82AF8220
:102E2000B88680918A0E90918B0EA0918C0EB091F5
:102E30008D0E89879A87AB87BC8760917E0E7091D3
:102E40007F0E8091800E9091810E0E9447BA209152
:102E50007F183091801840918118509182180E94FB
:102E60004ABC6D877E878F87988B12FFD8C0D101AF
:102E70009F966D917D918D919C91D2970E94491260
:102E80006DA37EA38FA398A729893A894B895C8972
:102E9000C301B2010E94DEB86B017C012D893E891D
:102EA0004F89588DC501B4010E94DEB8762E672E79
:102EB000582E492E20E030E040E850E46DA17EA17C
:102EC0008FA198A50E944ABC2DA13EA14FA158A553
:102ED0000E944ABC4B015C012C2D3D2D4E2D5F2DD7
:102EE0006C2D7D2DC7010E944ABC9B01AC01C50120
:102EF000B4010E94DEB84B015C01B301C201272F6F
:102F0000362F492F582FF301A52DB42D6F2F7E2F6B
:102F1000CD010E944ABC9B01AC01C501B4010E94D5
:102F2000DEB80E94B7BC4B015C01B301C201272F80
:102F3000362F492F582F6C2D7D2DC7010E94B5BB10
:102F40009B01AC01C501B40190580E94ACB94B0182
:102F5000A82EB92E9B01482F592F0E94F8BC882318
:102F600029F085E19DE00E94F42376C1F10180857E
:102F70009185039721F4B7FAB094B7F8B09420E0A4
:102F800030E0A9016DA17EA18FA198A50E94A5B9ED
:102F900087FF0DC0B7FAB094B7F8B0942DA13EA149
:102FA0004FA158A550582DA33EA34FA358A7A50144
:102FB0009401F301A52DB42D6F2F762DCD010E9424
:102FC0004ABC9B01AC016C2D7D2DC7010E94DEB86F
:102FD00020E030E040E05FE30E944ABC6D8F7E8FCE
:102FE0008F8F98A3A50194016C2D7D2D8E2D9F2D83
:102FF0000E944ABC9B01AC01D301F2016B2F762DDC
:103000008F2F9E2F0E94DFB820E030E040E05FE38A
:103010000E944ABC69A37AA38BA39CA30CC02DA1D8
:103020003EA14FA158A5C701B6010E94B5BB6DA333
:103030007EA38FA398A7EE24E394D10118968D91D7
:103040009C911997029709F0E12C0DA11EA12FA1C7
:1030500038A5AE01435E5F4FBE016F5F7F4FCE016B
:1030600041960E940964F8C00E947112F1018081AA
:10307000918193FF05C083A094A0A5A0B6A003C032
:10308000812C912C540192FF0DC0D1015F962D919E
:103090003D914D915C919297A8EEB3E00E947BBD6B
:1030A0004B015C010E9463AF6B017C01C80CD91C11
:1030B000EA1CFB1C04C00E943F420E9454120E9462
:1030C00063AFA7019601261B370B480B590BDA019A
:1030D000C90181159449A543B74768F3BDC081E094
:1030E00080938318B9C010928318B6C0C601887344
:1030F0009927892B89F0A60195E0569547959A95D1
:10310000E1F74170B60124E0769567952A95E1F7DD
:103110006170C3FE05C002C061E041E081E001C012
:1031200080E00E9429780E94467196C010929F0EFE
:1031300093C081E080939F0E8FC02091820E3091CA
:10314000830E4091840E5091850E4090860E5090D3
:10315000870E6090880E7090890E80918A0E9091F3
:103160008B0EA0918C0EB0918D0E89A79AA7ABA75C
:10317000BCA7C3FE14C062857385848595852DA781
:103180003EA74FA758AB0E9449122DA53EA54FA5BB
:1031900058A90E94DEB8962E7DA35C0104C0912C34
:1031A0001DA2A12CB12CC4FE10C0F101668577854B
:1031B000808991890E944912A30192010E94DEB880
:1031C000562E672E782E892E04C0512C612C712C1E
:1031D000812CC5FE10C0D10152966D917D918D91CB
:1031E0009C9155970E94491229A53AA54BA55CA52B
:1031F0000E94DEB804C060E070E080E090E0E62E5F
:10320000F72E082F192F252D362D472D582DADA11E
:10321000692D7A2F8A2D9B2D0E94F971F1018081F1
:1032200086FF1AC066897789808D918D0E94491228
:1032300020911B0330911C0340911D0350911E03EC
:103240000E944ABC0E9414BA60939A0E70939B0E1F
:1032500080939C0E90939D0E0E9463AF6093CE0D61
:103260007093CF0D8093D00D9093D10D0C9471235A
:10327000C1FC02C00C942823D10116968D919C911B
:1032800017978537910509F4B7C508F079C08135DE
:10329000910509F40AC5A8F58A31910509F42AC1F6
:1032A000A8F48631910509F401C148F484319105EF
:1032B00009F4EEC0459711F00C947123EFC08831EA
:1032C000910509F408C108F011C1F6C08E319105CD
:1032D00009F442C148F48B31910509F428C14C9797
:1032E00011F00C94712329C18A32910509F450C15F
:1032F0008035910509F4CAC4809711F00C947123AC
:1033000038C18936910509F40BC2E8F4843591057A
:1033100009F4D7C450F48235910509F4CBC4833540
:10332000910511F00C947123C8C48C35910509F4F2
:1033300001C58836910509F47CC18535910511F0E8
:103340000C947123DAC48D36910509F4ECC150F464
:103350008A36910509F484C48B36910511F00C94DA
:1033600071238CC48237910509F443C583379105D5
:1033700009F438C58F36910511F00C94712320C5DE
:103380008F3D910509F4C0C6E8F58B3C910509F421
:103390000EC6D8F48C38910509F49EC150F48737D5
:1033A000910509F437C58837910511F00C94712304
:1033B0005DC5893C910509F462C508F0ACC58E3B3A
:1033C000910511F00C9471236BC38E3C910509F4A7
:1033D00049C650F48C3C910509F4FCC58D3C91051F
:1033E00011F00C9471233BC68C3D910509F46EC617
:1033F0008D3D910509F479C68F3C910511F00C942F
:10340000712334C68039B1E09B0709F4FEC600F58C
:103410008B3F910511F40C94492250F4883E91059C
:1034200009F487C6893E910511F00C947123AFC64B
:103430008F32F1E09F0709F4E8C38E3521E092074F
:1034400009F4CDC78C32914011F00C947123BCC3A8
:10345000853F41E0940709F4B1C768F48239A1E0DF
:103460009A0709F406C708F4D3C6843F914011F0C7
:103470000C9471239BC7873FF1E09F0709F4EFC5C8
:1034800008F4AAC78C38934011F00C94712385C7B7
:1034900088E898E10E94787B0C94712310921419AB
:1034A00088E898E10E949C780C947123109214197A
:1034B000109215190C947123D7FC02C00C9471233F
:1034C000D101D3966D917C91D49788E898E10E94C0
:1034D000997B0C94712380911519882311F40C9415
:1034E000712381E0809314190C94712310921419A4
:1034F0000C947123D2FC02C00C947123F101478D0E
:1035000050A161A172A180911519882311F40C9426
:1035100071234093E5185093E6186093E718709371
:10352000E81886EC98E10E94BA810C94712388E82F
:1035300098E10E94F87B0C947123D7FC02C00C9494
:103540007123D101D3966D917C91D49788E898E14D
:103550000E941E7C0C947123D7FC02C00C94712332
:10356000F10163A974A988E898E10E94817C0C9418
:103570007123D7FC02C00C947123D101D3966D91B5
:103580007C91D49788E898E10E94B17C0C947123D7
:10359000CC24BCE0DB22C114ECE0DE0611F00C947C
:1035A0007123F101878D90A1A1A1B2A1B7FF02C043
:1035B0000C9471238F3F9105A105B10509F014F416
:1035C0000C9447230C947123F901EE0FFF1FEF5069
:1035D000FE4FE491F0E0E017F10711F40C94712331
:1035E0002F5F3F4F2C33310579F717FF02C00C9442
:1035F000712361E08F2D0E949DB0D1015F966C9187
:103600008F2D0E94D5B0F101678D70A18F2D0E9482
:103610003DAEB8018AEE9CE00E94BC24D1015F96C9
:103620006D917C91909785EE9CE00E94AC240C9467
:1036300071230E94F03A81110C9471230E9463AFB0
:103640006093CE0D7093CF0D8093D00D9093D10DDC
:103650008091D20283FF02C00C947123F10180811A
:10366000918193FF02C00C944F2392FF0AC0878D73
:1036700090A1A1A1B2A1892B8A2B8B2B11F40C94C0
:103680004F23D1018D919C91119792FD02C00C9412
:10369000712391FF0EC05F966D917D918D919C91EC
:1036A00092970E9447BAF101468D0E94C6360C944B
:1036B00071230091400310914103D1015F966D91F8
:1036C0007D918D919C9192970E9447BAF80140811B
:1036D0000E94C6360C9471230E94F03A81110C941A
:1036E00071230E9463AF6093CE0D7093CF0D8093D2
:1036F000D00D9093D10D8091D20283FDF2C7D101FC
:103700008D919C91119792FFECC75F966D917D9181
:103710008D919C9192970E9447BA0E947A36E1C798
:103720000E941713DEC70E94F03A8111DAC70E9487
:1037300063AF6093CE0D7093CF0D8093D00D9093B7
:10374000D10D8091D20283FDCCC76DE272E08CE393
:103750009BE10E943C988CE39BE10E94D19A0E94DD
:1037600071128090400390904103F101808191811A
:1037700091FF07C0268D211104C0BEE48B2EB2E05C
:103780009B2E92FF0DC0D1015F966D917D918D9121
:103790009C9192970E9447BAF40140810E94C636DC
:1037A000D401DA962D913D914D915C91DD97D6969D
:1037B0006D917D918D919C91D9970E94DEB87B018E
:1037C0008C0120E030E0A9017F2D912F0E94A8BB41
:1037D00018166CF420E030E040E050E46E2D7F2DB0
:1037E000802F912F0E94A5B987FF0EC07AC720E0D5
:1037F00030E040E050EC6E2D7F2D802F912F0E9405
:10380000A8BB18160CF46DC733243394F40124A913
:1038100035A982A993A9821793070CF0312C0E9435
:1038200063AF69A77AA78BA79CA710E0412C512C06
:1038300032010E9463AF6DA37EA38FA398A7DC0122
:10384000CB0129A53AA54BA55CA5821B930BA40B24
:10385000B50B893E9340A105B10550F00E941713A6
:103860008DA19EA1AFA1B8A589A79AA7ABA7BCA718
:103870000E9454128091400390914103881699064A
:1038800009F062C0D4019396ED90FC9094971E14B9
:103890001F040CF059C0111156C0332009F41AC787
:1038A00091966D917C919297882777FD8095982FBE
:1038B0000E9447BA9B01AC01F40166A977A980ADCB
:1038C00091AD0E94A8BB18160CF0FDC6662777279D
:1038D0006E197F09882777FD8095982F0E9447BA37
:1038E00020911B0330911C0340911D0350911E0336
:1038F0000E944ABC0E9414BA1F921F92D401529691
:103900002C9152972F9351962C9151972F9350961B
:103910002C9150972F931F962C912F935B016C0144
:10392000E12CF12C870120E030E0A90160E070E09B
:10393000CB010E943B630F900F900F900F900F9060
:103940000F9011E0C0C611E04114510461047104EC
:1039500009F04BC03320C9F020E030E040E85FE3DD
:10396000F40162AD73AD84AD95AD0E94DEB89B01EC
:10397000AC01D401D6966D917D918D919C91D99792
:103980000E94A8BB87FF1AC051CF20E030E040E87A
:103990005FE3F40162AD73AD84AD95AD0E94DFB815
:1039A0009B01AC01D401D6966D917D918D919C9136
:1039B000D9970E94A5B918160CF438CFF401A78D39
:1039C000B0A128EE33E00E9474BD2B013C012DA173
:1039D0003EA14FA158A5420E531E641E751E4114F0
:1039E00051046104710409F424CFD301C2012DA153
:1039F0003EA14FA158A5821B930BA40BB50B8115BB
:103A00009449A543B74708F414CF1123E1F18091FD
:103A100040039091410388169906A9F5D401939625
:103A20006D917C919497882777FD8095982F0E94BF
:103A300047BA20911B0330911C0340911D03509104
:103A40001E030E944ABC0E9414BA1F921F92F401E6
:103A500022892F9321892F9320892F9327852F93B4
:103A60005B016C01E12CF12C870120E030E0A90121
:103A700060E070E0CB010E943B630F900F900F90CD
:103A80000F900F900F901092711B0E9463AF609384
:103A9000CE0D7093CF0D8093D00D9093D10D21C694
:103AA00023FD1FC66EE372E08CE39BE10E943C980D
:103AB0008CE39BE10E94D19A0E947112D1018D91F9
:103AC0009C91119792FF0AC05F966D917D918D91A7
:103AD0009C9192970E9447BA0E947A3620911902CF
:103AE00030911A0240911B0250911C026091150204
:103AF0007091160280911702909118020E94DEB810
:103B00007B018C0120E030E0A9017F2D912F0E94E4
:103B1000A8BB18166CF420E030E040E450E46E2DB1
:103B20007F2D802F912F0E94A5B987FF0EC0D9C588
:103B300020E030E040E450EC6E2D7F2D802F912F5F
:103B40000E94A8BB18160CF4CCC50E9463AF6B0191
:103B50007C0113C00E9463AF6C197D098E099F0917
:103B6000693E73408105910530F00E9417130E9451
:103B700063AF6B017C010E94541220E030E040E012
:103B80005FE3609115027091160280911702909187
:103B900018020E94DFB82091190230911A02409158
:103BA0001B0250911C020E94A5B987FDD3CF109231
:103BB000711B0E9463AF6093CE0D7093CF0D809305
:103BC000D00D9093D10D8DC5D2FE04C0F101678D4B
:103BD00070A102C061E070E0D3FE06C0D1019396EF
:103BE0000D911C91949702C008EE13E020E030E0A4
:103BF000A9018FE40E9441B1B80180E090E00E94E9
:103C00009FAF8FE40E9452B46CC5D2FE04C0F10194
:103C1000678D70A102C066E970E0D3FE09C0D101D2
:103C200093960D911C9194970230110524F405C0D0
:103C300000E010E002C002E010E0882777FD8095E8
:103C4000982F0E9447BAAB01BC01F801EE0FFF1F8D
:103C5000E65FFD4F202F808191810E94AF3741C5E3
:103C6000D3FA662760F9D2FE04C0F101878D90A1D6
:103C700002C08FEF90E00E94A61333C5D3FA6627E7
:103C800060F980E090E00E94A6132BC50E9471129B
:103C90000E9463AF6093CE0D7093CF0D8093D00DD3
:103CA0009093D10D9D9AA5981CC50E9471129D9A62
:103CB000A59A17C510929E0E14C581E080939E0EA2
:103CC00010C5D2FE14C0D1015F962D913D914D914A
:103CD0005C919297A8EEB3E00E947BBD6093CD0209
:103CE0007093CE028093CF029093D002FAC40E94C8
:103CF000711281E00E94F46CF4C4D2FE12C0F10192
:103D0000278D30A141A152A1A8EEB3E00E947BBD56
:103D10006093CA0D7093CB0D8093CC0D9093CD0D15
:103D2000E0C41092CA0D1092CB0D1092CC0D1092DF
:103D3000CD0DD7C4C3FE0DC0F10182859385A48546
:103D4000B58580930F0390931003A0931103B09354
:103D50001203D1018C9184FF0EC01E968D919D910E
:103D60000D90BC91A02D8093130390931403A09306
:103D70001503B0931603F101808185FF0CC0828981
:103D80009389A489B5898093170390931803A0930E
:103D90001903B0931A03D1018C9186FF0EC02091B4
:103DA000400330914103F10186899789A08DB18D3F
:103DB000F90181879287A387B4870E946A6D91C4B5
:103DC000D2FE05C0D1015F968C918093D202809182
:103DD000D20283FF86C440E060E070E0CB010E9425
:103DE000C6367FC482EB9EE00E94F0230E94C61379
:103DF00078C40E947F1275C4D7FE73C4F10163A911
:103E000074A98CE39BE10E9478988CE39BE10E946B
:103E1000D19A67C40E94711288ED9CE00E94E2234F
:103E2000029903C08FED9CE002C082EE9CE00E94EC
:103E3000E22381ED9CE00E94E223019903C08FED13
:103E40009CE002C082EE9CE00E94E2238AEC9CE0AF
:103E50000E94E223379903C08FED9CE002C082EEFE
:103E60009CE00E94E2230E943F123BC4CC24FCE071
:103E7000DF22C1142CE0D20609F415C432C4C3FEFB
:103E800011C0D1011A966D917D918D919C911D97D4
:103E90000E9414BA6093E3027093E4028093E502F7
:103EA0009093E602F101808184FF0EC066857785DC
:103EB000808991890E9414BA6093E7027093E802A6
:103EC0008093E9029093EA02D1018C9185FF10C0A2
:103ED00052966D917D918D919C9155970E9414BA47
:103EE0006093EB027093EC028093ED029093EE02EC
:103EF000F101808186FF61CF66897789808D918D00
:103F00000E9414BA6093EF027093F0028093F10262
:103F10009093F20252CFC3FE11C0D1011A966D9157
:103F20007D918D919C911D970E9414BA6093D3024C
:103F30007093D4028093D5029093D602F1018081D0
:103F400084FF0EC066857785808991890E9414BAA6
:103F50006093D7027093D8028093D9029093DA02CB
:103F6000D1018C9185FF10C052966D917D918D91FC
:103F70009C9155970E9414BA6093DB027093DC0207
:103F80008093DD029093DE02F101808186FF15CFE0
:103F900066897789808D918D0E9414BA6093DF02C3
:103FA0007093E0028093E1029093E20206CFD2FE8A
:103FB00098C3F101878D90A1A1A1B2A1181619068D
:103FC0001A061B061CF08093C5028BC381E0809308
:103FD000C50287C3E0914003F0914103D2FC02C0C7
:103FE000BF9610C0F101878D90A1A1A1B2A1B7FD2C
:103FF00078C3892B8A2B8B2B19F0EEE0F2E002C0FC
:10400000EDE7F2E0C3FE0BC0D1011A964D915D9130
:104010006D917C911D97428F538F648F758FD10165
:104020008C9184FF0AC01E964D915D916D917C919B
:104030005197468F578F60A371A3D1018C9185FF53
:104040000AC052964D915D916D917C91559742A316
:1040500053A364A375A3CF010E94453142C30E94BC
:10406000FE2F3FC3C1010E94FC2E3BC3C3FE0DC007
:10407000F10182859385A485B5858093F30D909396
:10408000F40DA093F50DB093F60DC6FE11C020916E
:10409000400330914103F10186899789A08DB18D4C
:1040A000F901878B908FA18FB28F80810E94B831E8
:1040B0004091F30D5091F40D6091F50D7091F60D56
:1040C00022E084EC9CE00E9436260BC3D2FE06C0A0
:1040D000F101878D90A1A1A1B2A104C084E690E076
:1040E000A0E0B0E00E944113FCC2D2FE06C0F10184
:1040F000878D90A1A1A1B2A104C084E690E0A0E0C8
:10410000B0E00E949113EDC2D2FEEBC24FB7F8941B
:104110008091841890918518D1015F962D913C91E2
:104120009097820F931F90938518809384184FBFA8
:10413000D8C26091C60D7091C70D85EB9CE00E94BE
:10414000BC246091C80D7091C90D83EA9CE00E9467
:10415000BC244091C20D5091C30D6091C40D70916B
:10416000C50D22E08AE99CE00E9436261092C90D16
:104170001092C80D1092C70D1092C60D1092C20D6C
:104180001092C30D1092C40D1092C50DAAC22091B9
:10419000400330914103C4FE0AC0F1018685978532
:1041A000A089B189F90181A792A7A3A7B4A7D901D2
:1041B00099964D915D916D917C919C9722E080E95B
:1041C0009CE00E941B26F1018081209140033091E8
:1041D000410383FF09C082859385A485B585F901D4
:1041E00085A396A3A7A3B0A7D90195964D915D91FC
:1041F0006D917C91989722E082E89CE00E941B26BA
:104200000E943F120E943C6D6CC20E94711269C2F2
:1042100080918E0E90918F0EA091900EB091910E84
:104220008093DC0D9093DD0DA093DE0DB093DF0D38
:104230008091920E9091930EA091940EB091950E54
:104240008093D80D9093D90DA093DA0DB093DB0D28
:104250008091960E9091970EA091980EB091990E24
:104260008093D40D9093D50DA093D60DB093D70D18
:1042700038C2C60188709927C3FE0EC0C4FE0CC0A8
:10428000960145E0369527954A95E1F7B1E02B2751
:1042900077247394722202C077247394D0FE0DC0E9
:1042A000D1015A96EC915A975B96FC915B975C967C
:1042B0006C905C975D965C9008C0E091FB0DF0916E
:1042C000FC0D6090FD0D5090FE0D711002C0C5FEFA
:1042D00017C0E090D40DF090D50D0091D60D10913F
:1042E000D70D4091960E5091970E6091980E709157
:1042F000990EE41AF50A060B170B711006C003C0DD
:10430000E12CF12C8701C4FE17C02091D80D30910B
:10431000D90D4091DA0D5091DB0D8090920E909066
:10432000930EA090940EB090950E281939094A0961
:104330005B09711006C003C020E030E0A901892BA1
:10434000A9F06091DC0D7091DD0D8091DE0D9091F2
:10435000DF0D80908E0E90908F0EA090900EB090FA
:10436000910E681979098A099B0903C060E070E021
:10437000CB01DD24D394DF921F925F926F92FF9363
:10438000EF93A12CB12C65010E943B630F900F901D
:104390000F900F900F900F90A4C1CC24BCE0DB22B3
:1043A000C114ECE0DE0609F487C19BC180E00E94E5
:1043B000952982E398E00E940C2493C10E94062C68
:1043C000E0914003F091410380810E94B83180E187
:1043D00098E00E940C2485C10E940C2782C18AE4C7
:1043E00092E00E94F023D1018D919C9192FD05C035
:1043F000F101808183FF16C00BC010E0D1015F96F0
:104400006C91812F0E9481151F5F1530B9F7F0CF95
:10441000F10162857385848595850E9419BA80E0D3
:104420000E948115D1018C9184FF0BC01E966D9165
:104430007D918D919C9151970E9419BA81E00E94C3
:104440008115F101808185FF09C0628973898489A2
:1044500095890E9419BA82E00E948115D1018C9140
:1044600086FF0BC056966D917D918D919C915997C9
:104470000E9419BA83E00E948115F1018081918127
:1044800093FF04C063A184E00E9481150E949A15E5
:1044900028C1D2FE26C1F101878D90A1A1A1B2A1B0
:1044A0000097A105B10569F410924F0E1092500EBD
:1044B0001092510E1092520E8FE69CE00E94F02353
:1044C00010C10197A105B10541F540914F0E5091E2
:1044D000500E6091510E7091520E87E59CE00E9443
:1044E000CA2460914F0E7091500E8091510E9091A0
:1044F000520E0E9447BA20917B1830917C1840914F
:104500007D1850917E180E944ABCAB01BC0122E08C
:1045100087E49CE00E943626E4C082E090E0A0E0C0
:10452000B0E0F101878F90A3A1A3B2A380918E0E7A
:1045300090918F0EA091900EB091910E892B8A2BA5
:104540008B2B09F080C08091920E9091930EA091D8
:10455000940EB091950E892B8A2B8B2B09F073C08A
:1045600080914F0E9091500EA091510EB091520E2D
:10457000B7FF0FC0B095A095909581959F4FAF4F15
:10458000BF4F80934F0E9093500EA093510EB09357
:10459000520E1092FF0D1092000E1092010E10920A
:1045A000020EC0904F0ED090500EE090510EF09041
:1045B000520EC701B6010E9447BA9B01AC0160913F
:1045C0007B1870917C1880917D1890917E180E94C4
:1045D0004ABC6093030E7093040E8093050E909373
:1045E000060EC092230ED092240EE092250EF09279
:1045F000260E10928E0E10928F0E1092900E109228
:10460000910E1092920E1092930E1092940E1092A0
:10461000950E1092960E1092970E1092980E109280
:10462000990E63E478E18EE89EE00E94B9598FE12B
:104630009CE00E94F02380E00E94952988EA9BE09C
:104640000E94F0234EC087EB9BE00E94F42349C0F8
:10465000D1FE08C00E947112D1015E968C910E9419
:10466000B8313FC022FF3DC088EA9DE00E94E223AE
:10467000C1010E94114435C00E9463AF6093CE0D0A
:104680007093CF0D8093D00D9093D10D2AC0F1017E
:10469000F3A00F2D14A120E030E00C94E41A0E9446
:1046A00071120C94411BD10193966C9193975F9674
:1046B0008C910E94628F15C0F101678D70A183A15A
:1046C0000E94A9140EC0411451046104710409F43C
:1046D00043C98BC9411451046104710409F455C9DB
:1046E00084C9E0960FB6F894DEBF0FBECDBFDF9150
:1046F000CF911F910F91FF90EF90DF90CF90BF90DF
:10470000AF909F908F907F906F905F904F903F9071
:104710002F9008950E943F420E94513FEC018CE38C
:104720009BE10E94CDAC2097B1F0809116198823AF
:1047300061F0888181FF12C08E819F814D9771F455
:1047400013C0CE010E94CF4403C0CE010E943A168E
:10475000CE010E94E2440E945576DCCFBE0188E87B
:1047600098E10E94E978EDCF88E898E10E94627CA8
:10477000E8CF0C94C8460E94B246209108023091BE
:1047800009028217930724F4909309028093080288
:10479000089560910802709109028091060290913B
:1047A00007026817790744F47093070260930602C2
:1047B0008EE99DE00C94AC240895682F80E394E08A
:1047C0000C944C45CF93DF93EC0102C00E94DD2393
:1047D000FE01849121968111F9CFDF91CF91089547
:1047E0000E94E2230C943F12CF93DF93EC0189E9FE
:1047F0009EE00E94E223CE01DF91CF910C94F02342
:10480000CF93DF93EC0183E99EE00E94E223CE0187
:10481000DF91CF910C94F023CF93DF93EC0183E9E8
:104820009EE00E94E223CE01DF91CF910C94E2231F
:10483000CF93DF93EC018AE89EE00E94E223CE0151
:10484000DF91CF910C94F023CF93DF93EC0102C062
:104850000E94DD2389918111FBCFDF91CF910895D3
:10486000CF93DF93EB010E94E223CE01DF91CF9142
:104870000C942424CF93DF93EB010E94E223CE011A
:104880000E942424DF91CF910C943F128F929F922B
:10489000AF92BF92CF92DF92EF92FF920F931F934E
:1048A000CF93DF93CDB7DEB72B970FB6F894DEBF6B
:1048B0000FBECDBF6B017C011B868E01055F1F4FB4
:1048C0008AE0882E912CA12CB12CC701B601A5013C
:1048D00094010E94C6BD8C2D805D9AE0299F8019AD
:1048E0001124F80182938F0169017A01C114D10466
:1048F000E104F10451F7CF010E9424242B960FB656
:10490000F894DEBF0FBECDBFDF91CF911F910F9105
:10491000FF90EF90DF90CF90BF90AF909F908F90DF
:104920000895CF92DF92EF92FF926B017C0197FF87
:104930000BC08DE20E94DD23F094E094D094C094EB
:10494000C11CD11CE11CF11CC701B601FF90EF9006
:10495000DF90CF900C944624CF93DF93EB010E941D
:10496000E223BE01882777FD8095982F0E9491242D
:10497000DF91CF910C943F12CF93DF93EB010E9414
:10498000E223BE01882777FD8095982FDF91CF9194
:104990000C949124CF93DF9300D01F92CDB7DEB754
:1049A00049835A836B837C830E94E22349815A8125
:1049B0006B817C81CB01BA010E9491240F900F90F2
:1049C0000F900F90DF91CF910C943F12CF93DF9314
:1049D00000D01F92CDB7DEB749835A836B837C83A7
:1049E0000E94E22349815A816B817C81CB01BA010B
:1049F0000F900F900F900F90DF91CF910C94912416
:104A0000CF93DF9300D01F92CDB7DEB749835A838F
:104A10006B837C830E94E22349815A816B817C8174
:104A2000CB01BA010E9446240F900F900F900F9077
:104A3000DF91CF910C943F12CF93DF9300D01F9260
:104A4000CDB7DEB749835A836B837C830E94E22310
:104A500049815A816B817C81CB01BA010F900F9003
:104A60000F900F90DF91CF910C944624EF92FF921C
:104A70000F931F93CF93DF931F921F92CDB7DEB793
:104A8000042F69837A830E94E2236981E62E7A816A
:104A9000F72E10E00BC0F701419151916191719196
:104AA0007F0181E19DE00E94E6241F5F1013F3CF98
:104AB0000F900F90DF91CF911F910F91FF90EF908A
:104AC0000C943F128F929F92AF92BF92CF92DF923F
:104AD000EF92FF92CF936B017C01C42F9B01AC013D
:104AE0000E94F8BC882319F084EA9EE01AC04601AF
:104AF0005701E894B7F82FEF3FEF4FE75FE7C501A5
:104B0000B4010E94F8BC811117C02FEF3FEF4FE7AF
:104B10005FE7C501B4010E94A5B918166CF480EADC
:104B20009EE0CF91FF90EF90DF90CF90BF90AF903D
:104B30009F908F900C94E22320E030E0A901C70100
:104B4000B6010E94A5B987FF07C08DE20E94DD2350
:104B5000F7FAF094F7F8F094B12C60E070E080E0A0
:104B60009FE307C020E030E040E251E40E94ACB98E
:104B7000B394BC12F7CF262F372F482F592FC701D8
:104B8000B6010E94DFB86B017C017D2D9F2D0E9434
:104B900019BA4B015C010E9445BA9B01AC016C2D16
:104BA0007D2D8E2D9F2D0E94DEB8F62EE72ED82E5D
:104BB000C92EB401C5010E944624CC2381F18EE2A6
:104BC0000E94DD232CC020E030E040E251E4D70118
:104BD000F6016B2F7E2D8F2F9C2D0E944ABC4B011E
:104BE0005C01792D9B2D0E9414BA6B01EE24D7FC39
:104BF000E094FE2CC701B6010E949124C701B601C2
:104C00000E9447BA9B01AC01682D792D8A2D9B2DFE
:104C10000E94DEB8F62EE72ED82EC92EC150C11143
:104C2000D2CFCF91FF90EF90DF90CF90BF90AF9019
:104C30009F908F900895CF92DF92EF92FF92CF9343
:104C4000DF931F92CDB7DEB76A017B0129830E94F3
:104C5000E2232981422FC701B6010F90DF91CF9146
:104C6000FF90EF90DF90CF900C946225CF92DF926F
:104C7000EF92FF92CF93DF931F92CDB7DEB76A0119
:104C80007B0129830E94E2232981422FC701B601BB
:104C90000E9462250F90DF91CF91FF90EF90DF90FF
:104CA000CF900C943F12CF93DF9300D01F92CDB7DB
:104CB000DEB749835A836B837C8344E050E0BC01B8
:104CC000CE0101960E9420BD0F900F900F900F9083
:104CD000DF91CF910895CF93DF9300D01F92CDB78E
:104CE000DEB744E050E0BC01CE0101960E94FCBC5E
:104CF00059814A813B812C81652F742F832F922FFC
:104D00000F900F900F900F90DF91CF91089547ED86
:104D100053EA6FE172E488E293E00E94532640E098
:104D200050E060EA70E48CE293E00E94532640E099
:104D300050E066E173E488E493E00E94532643E385
:104D400053E364E371EC80E293E00E94532640E079
:104D500050E060ED70EC84E293E00E9453264CE555
:104D60005FE86AE872EC80E393E00E94532640E03B
:104D700050E060E272EC84E393E00E9453264CE53D
:104D80005FE86AE872E488E393E00E94532640E01B
:104D900050E060E272EC8CE393E00E94532640E026
:104DA00050E0BA0180E493E00E94532640E050E0D6
:104DB00060EA72E484E493E00E94532640E050E00D
:104DC00067E873E481E793E00E94532646E656E6DF
:104DD0006EEF72E485E793E00E94532664EB70E087
:104DE00089E793E00E9440BD66E470E08BE793E0C2
:104DF0000E9440BD60E070E08DE793E00E9440BDFE
:104E000060E070E08FE793E00E9440BD60E070E0FA
:104E100081E893E00C9440BD80E092ECA1E0B0E02A
:104E20008093C9029093CA02A093CB02B093CC02A4
:104E30001092CA0D1092CB0D1092CC0D1092CD0D88
:104E400080E49EE7A5E0B0E08093CD029093CE028F
:104E5000A093CF02B093D00285E595E5A5E5B2E435
:104E600080930F0390931003A0931103B093120348
:104E70008093130390931403A0931503B093160328
:104E80008093170390931803A0931903B0931A0308
:104E900080E090E0A0E8BFE380931B0390931C03A5
:104EA000A0931D03B0931E0380E090E0A6E9B3E455
:104EB0008093FF0290930003A0930103B093020339
:104EC0008093030390930403A0930503B093060318
:104ED0008093070390930803A0930903B0930A03F8
:104EE00080E090E0A0EAB2E48093F3029093F402B1
:104EF000A093F502B093F6028093F7029093F80224
:104F0000A093F902B093FA028093FB029093FC0203
:104F1000A093FD02B093FE0280E090E0A0EAB1E42D
:104F20008093F30D9093F40DA093F50DB093F60DCF
:104F30008CED95E0A0E0B0E08093E3029093E40272
:104F4000A093E502B093E6028093E7029093E80213
:104F5000A093E902B093EA028093EB029093EC02F3
:104F6000A093ED02B093EE0288EB9BE0A0E0B0E0EE
:104F70008093D3029093D402A093D502B093D6022B
:104F80008093D7029093D802A093D902B093DA020B
:104F90008093DB029093DC02A093DD02B093DE02EB
:104FA00031E0309321022FEF2093260280E5809399
:104FB000270280E090E0A4E4B3E480932802909379
:104FC0002902A0932A02B0932B028BE794E1A4E07C
:104FD000B2E480932C0290932D02A0932E02B09302
:104FE0002F0280E090E0A1E9B3E480933002909337
:104FF0003102A0933202B09333022093340280E056
:1050000090E8A5EBB3E48093130E9093140EA09355
:10501000150EB093160E80930B0E90930C0EA0936A
:105020000D0EB0930E0E8093030E9093040EA0937A
:10503000050EB093060E10920F0E1092100E1092E5
:10504000110E1092120E1092070E1092080E10926E
:10505000090E10920A0E1092FF0D1092000E10927F
:10506000010E1092020E86E696EEAFE9B3E480934D
:10507000570290935802A0935902B0935A0280E0CD
:1050800090E0A8E4B2E480935D0290935E02A09366
:105090005F02B093600280E090E0A0E2B2E480930F
:1050A000650290936602A0936702B093680280E065
:1050B00090E4ACE1B6E48093610290936202A09325
:1050C0006302B0936402309390028CE8809395025F
:1050D0008CE3809396028CEE91E5A8E6B1E4809390
:1050E000970290939802A0939902B0939A0283E357
:1050F00093E3A3E7BFE380939B0290939C02A0936A
:105100009D02B0939E0285E89BEEADE5B2E48093EC
:105110009F029093A002A093A102B093A2022093B9
:10512000A30288E092E0A0E0B0E080935302909365
:105130005402A0935502B093560285E893E0A0E094
:10514000B0E080934F0290935002A0935102B0932D
:10515000520281E090E090936E0280936D0286E9A6
:1051600090E09093700280936F02109272021092FE
:1051700071022093C1021092730210927402109275
:1051800075021092760210927702109278021092B5
:10519000790210927A020E9487260E946A6DE0913D
:1051A0004003F091410380810E94B8310E948B310D
:1051B0008FEE97E00C940C2480E090E00E940CBDF0
:1051C000813061F48BE490E00E9414BD6093C902C9
:1051D0007093CA028093CB029093CC0208951F93E0
:1051E000CF93DF9310E0C0E0D0E0C836D10521F0C6
:1051F000CE010E940CBD180F2196C11588E0D8077A
:10520000A1F7812FDF91CF911F910895CF92DF9267
:10521000EF92FF92CF93DF931F92CDB7DEB720E0DE
:1052200030E0A9016091E10D7091E20D8091E30DF4
:105230009091E40D0E94A5B9882309F46EC00E94E4
:1052400063AFC090E50DD090E60DE090E70DF090D3
:10525000E80D6C197D098E099F0928EE33E040E0C6
:1052600050E00E94C6BD69017A018DE790E00E947E
:1052700014BDAB01BC014C0D5D1D6E1D7F1D8DE786
:1052800090E00E9438BD81E890E00E946B266B019F
:105290007C012FE632E143E85AE36091E10D709121
:1052A000E20D8091E30D9091E40D0E944ABC9B01B8
:1052B000AC01C701B6010E94DFB8AB01BC0181E8B7
:1052C00090E00E9453261092E10D1092E20D109290
:1052D000E30D1092E40D0E9463AF6093E50D7093AF
:1052E000E60D8093E70D9093E80D0E94EF28682F5C
:1052F00088E690E069830E940CBD6981681721F0FF
:1053000088E690E00E942ABD0F90DF91CF91FF9038
:10531000EF90DF90CF900C94C6130F90DF91CF9158
:10532000FF90EF90DF90CF900895CF93C82F4091DA
:10533000C9025091CA026091CB027091CC028BE4F9
:1053400090E00E9438BD4091CA0D5091CB0D609104
:10535000CC0D7091CD0D8FE490E00E9438BD40914E
:10536000CD025091CE026091CF027091D00283E5C0
:1053700090E00E9438BD40910F035091100360915E
:1053800011037091120383E090E00E945326409134
:10539000130350911403609115037091160387E075
:1053A00090E00E945326409117035091180360919A
:1053B000190370911A038BE090E00E9453264091EC
:1053C000FF025091000360910103709102038FE08E
:1053D00090E00E9453264091030350910403609192
:1053E00005037091060383E190E00E9453264091EB
:1053F0000703509108036091090370910A0387E144
:1054000090E00E9453264091F3025091F402609183
:10541000F5027091F6028BE190E00E9453264091D4
:10542000F7025091F8026091F9027091FA028FE14F
:1054300090E00E9453264091FB025091FC02609143
:10544000FD027091FE0283E290E00E94532640919B
:10545000F30D5091F40D6091F50D7091F60D87E20A
:1054600090E00E9453266091E3027091E4028091E3
:10547000E5029091E6020E9447BAAB01BC0183E3CA
:1054800090E00E9453266091E7027091E8028091BB
:10549000E9029091EA020E9447BAAB01BC0187E39E
:1054A00090E00E9453266091EB027091EC02809193
:1054B000ED029091EE020E9447BAAB01BC018BE372
:1054C00090E00E9453266091D3027091D4028091A3
:1054D000D5029091D6020E9447BAAB01BC018FE37E
:1054E00090E00E9453266091D7027091D80280917B
:1054F000D9029091DA020E9447BAAB01BC0183E461
:1055000090E00E9453266091DB027091DC02809152
:10551000DD029091DE020E9447BAAB01BC0187E434
:1055200090E00E945326609121028AE690E00E945A
:105530002ABD609126028BE690E00E942ABD609110
:1055400027028CE790E00E942ABD409128025091EA
:10555000290260912A0270912B028CE690E00E9451
:10556000532640912C0250912D0260912E02709191
:105570002F0280E790E00E94532640913002509124
:105580003102609132027091330284E790E00E9410
:1055900053266091340288E790E00E942ABD409132
:1055A0000F0E5091100E6091110E7091120E85E841
:1055B00090E00E9453264091070E5091080E609192
:1055C000090E70910A0E89E890E00E9453264091DE
:1055D000FF0D5091000E6091010E7091020E8DE84A
:1055E00090E00E9453264091130E5091140E60914A
:1055F000150E7091160E81E990E00E94532640919D
:105600000B0E50910C0E60910D0E70910E0E85E9EF
:1056100090E00E9453264091030E5091040E609139
:10562000050E7091060E89E990E00E94532640E035
:1056300050E0BA018DE990E00E94532640E050E02E
:10564000BA0181EA90E00E94532640E050E0BA019E
:1056500085EA90E00E945326A89540915702509108
:1056600058026091590270915A0288EC90E00E94B1
:10567000532640915D0250915E0260915F027091ED
:1056800060028CEC90E00E9453264091650250919C
:105690006602609167027091680280ED90E00E945E
:1056A00053264091610250916202609163027091B1
:1056B000640284ED90E00E9453266091900288ED90
:1056C00090E00E942ABD6091950289ED90E00E94D1
:1056D0002ABD6091960285EF90E00E942ABD40911C
:1056E0009702509198026091990270919A028AED06
:1056F00090E00E94532640919B0250919C02609141
:105700009D0270919E028EED90E00E945326409182
:105710009F025091A0026091A1027091A20282EEBC
:1057200090E00E9453266091A30286EE90E00E94D2
:105730002ABD40914F0250915002609151027091E8
:10574000520287EE90E00E9438BD40915302509182
:10575000540260915502709156028BEE90E00E94C7
:1057600038BD60916D0270916E028FEE90E00E94E4
:1057700040BD60916F02709170028AEF90E00E94CC
:1057800040BD60917102709172028CEF90E00E94B6
:1057900040BD6091C1028EEF90E00E942ABD409111
:1057A000730250917402609175027091760281EFDC
:1057B00090E00E94532640917702509178026091C8
:1057C000790270917A0286EF90E00E945326CC23F2
:1057D00081F040E050E0BA018DE790E00E9438BDD2
:1057E00040E050E0BA0181E890E00E9453260E9418
:1057F000872664E089E690E00E942ABD0E94EF2897
:10580000682F88E690E0CF910C942ABDCF9389E66B
:1058100090E00E940CBDC82F8BE490E00E9414BD64
:105820006093C9027093CA028093CB029093CC021A
:105830008FE490E00E9414BD6093CA0D7093CB0D6D
:105840008093CC0D9093CD0D83E590E00E9414BD24
:105850006093CD027093CE028093CF029093D002DA
:1058600083E090E00E946B2660930F037093100317
:10587000809311039093120387E090E00E946B26BF
:10588000609313037093140380931503909316038E
:105890008BE090E00E946B266093170370931803CF
:1058A0008093190390931A038FE090E00E946B2677
:1058B0006093FF02709300038093010390930203AF
:1058C00083E190E00E946B266093030370930403CE
:1058D000809305039093060387E190E00E946B2676
:1058E00060930703709308038093090390930A035E
:1058F0008BE190E00E946B266093F3027093F402B8
:105900008093F5029093F6028FE190E00E946B265F
:105910006093F7027093F8028093F9029093FA0271
:1059200083E290E00E946B266093FB027093FC027E
:105930008093FD029093FE0287E290E00E946B2626
:105940006093F30D7093F40D8093F50D9093F60D25
:1059500083E390E00E946B260E9414BA6093E302F6
:105960007093E4028093E5029093E60287E390E06F
:105970000E946B260E9414BA6093E7027093E802BB
:105980008093E9029093EA028BE390E00E946B26F9
:105990000E9414BA6093EB027093EC028093ED02C4
:1059A0009093EE028FE390E00E946B260E9414BA5F
:1059B0006093D3027093D4028093D5029093D60261
:1059C00083E490E00E946B260E9414BA6093D70291
:1059D0007093D8028093D9029093DA0287E490E022
:1059E0000E946B260E9414BA6093DB027093DC0263
:1059F0008093DD029093DE028AE690E00E940CBD67
:105A0000809321028BE690E00E940CBD80932602D9
:105A10008CE790E00E940CBD809327028CE690E01A
:105A20000E946B26609328027093290280932A02B9
:105A300090932B0280E790E00E946B2660932C02EB
:105A400070932D0280932E0290932F0284E790E0B2
:105A50000E946B2660933002709331028093320271
:105A60009093330288E790E00E940CBD809334024B
:105A700085E890E00E946B2660930F0E7093100EE5
:105A80008093110E9093120E89E890E00E946B268D
:105A90006093070E7093080E8093090E90930A0E80
:105AA0008DE890E00E946B266093FF0D7093000ECE
:105AB0008093010E9093020E81E990E00E946B2684
:105AC0006093130E7093140E8093150E9093160E20
:105AD00085E990E00E946B2660930B0E70930C0E8C
